{
  "contractName": "FlightInsureApp",
  "abi": [
    {
      "inputs": [
        {
          "internalType": "address",
          "name": "_dataContract",
          "type": "address"
        }
      ],
      "stateMutability": "nonpayable",
      "type": "constructor"
    },
    {
      "anonymous": false,
      "inputs": [
        {
          "indexed": false,
          "internalType": "address",
          "name": "airline",
          "type": "address"
        },
        {
          "indexed": false,
          "internalType": "string",
          "name": "flight",
          "type": "string"
        },
        {
          "indexed": false,
          "internalType": "uint256",
          "name": "timestamp",
          "type": "uint256"
        },
        {
          "indexed": false,
          "internalType": "uint8",
          "name": "status",
          "type": "uint8"
        }
      ],
      "name": "FlightStatusInfo",
      "type": "event"
    },
    {
      "anonymous": false,
      "inputs": [
        {
          "indexed": false,
          "internalType": "address",
          "name": "airline",
          "type": "address"
        },
        {
          "indexed": false,
          "internalType": "string",
          "name": "flight",
          "type": "string"
        },
        {
          "indexed": false,
          "internalType": "uint256",
          "name": "timestamp",
          "type": "uint256"
        },
        {
          "indexed": false,
          "internalType": "uint8",
          "name": "status",
          "type": "uint8"
        }
      ],
      "name": "OracleReport",
      "type": "event"
    },
    {
      "anonymous": false,
      "inputs": [
        {
          "indexed": false,
          "internalType": "uint8",
          "name": "index",
          "type": "uint8"
        },
        {
          "indexed": false,
          "internalType": "address",
          "name": "airline",
          "type": "address"
        },
        {
          "indexed": false,
          "internalType": "string",
          "name": "flight",
          "type": "string"
        },
        {
          "indexed": false,
          "internalType": "uint256",
          "name": "timestamp",
          "type": "uint256"
        }
      ],
      "name": "OracleRequest",
      "type": "event"
    },
    {
      "anonymous": false,
      "inputs": [
        {
          "indexed": true,
          "internalType": "address",
          "name": "previousOwner",
          "type": "address"
        },
        {
          "indexed": true,
          "internalType": "address",
          "name": "newOwner",
          "type": "address"
        }
      ],
      "name": "OwnershipTransferred",
      "type": "event"
    },
    {
      "anonymous": false,
      "inputs": [
        {
          "indexed": false,
          "internalType": "address",
          "name": "account",
          "type": "address"
        }
      ],
      "name": "Paused",
      "type": "event"
    },
    {
      "anonymous": false,
      "inputs": [
        {
          "indexed": false,
          "internalType": "address",
          "name": "account",
          "type": "address"
        }
      ],
      "name": "Unpaused",
      "type": "event"
    },
    {
      "inputs": [],
      "name": "REGISTRATION_FEE",
      "outputs": [
        {
          "internalType": "uint256",
          "name": "",
          "type": "uint256"
        }
      ],
      "stateMutability": "view",
      "type": "function",
      "constant": true
    },
    {
      "inputs": [],
      "name": "owner",
      "outputs": [
        {
          "internalType": "address",
          "name": "",
          "type": "address"
        }
      ],
      "stateMutability": "view",
      "type": "function",
      "constant": true
    },
    {
      "inputs": [],
      "name": "paused",
      "outputs": [
        {
          "internalType": "bool",
          "name": "",
          "type": "bool"
        }
      ],
      "stateMutability": "view",
      "type": "function",
      "constant": true
    },
    {
      "inputs": [],
      "name": "renounceOwnership",
      "outputs": [],
      "stateMutability": "nonpayable",
      "type": "function"
    },
    {
      "inputs": [
        {
          "internalType": "address",
          "name": "newOwner",
          "type": "address"
        }
      ],
      "name": "transferOwnership",
      "outputs": [],
      "stateMutability": "nonpayable",
      "type": "function"
    },
    {
      "inputs": [],
      "name": "pause",
      "outputs": [],
      "stateMutability": "nonpayable",
      "type": "function"
    },
    {
      "inputs": [],
      "name": "unpause",
      "outputs": [],
      "stateMutability": "nonpayable",
      "type": "function"
    },
    {
      "inputs": [
        {
          "internalType": "uint256",
          "name": "_max",
          "type": "uint256"
        }
      ],
      "name": "updateMaxInsuredamount",
      "outputs": [],
      "stateMutability": "nonpayable",
      "type": "function"
    },
    {
      "inputs": [
        {
          "internalType": "uint256",
          "name": "_fund",
          "type": "uint256"
        }
      ],
      "name": "updateFundRequired",
      "outputs": [],
      "stateMutability": "nonpayable",
      "type": "function"
    },
    {
      "inputs": [
        {
          "internalType": "address",
          "name": "airline",
          "type": "address"
        }
      ],
      "name": "registerAirline",
      "outputs": [],
      "stateMutability": "nonpayable",
      "type": "function"
    },
    {
      "inputs": [],
      "name": "fund",
      "outputs": [],
      "stateMutability": "payable",
      "type": "function",
      "payable": true
    },
    {
      "inputs": [
        {
          "internalType": "address",
          "name": "airline",
          "type": "address"
        },
        {
          "internalType": "string",
          "name": "flight",
          "type": "string"
        },
        {
          "internalType": "uint256",
          "name": "timestamp",
          "type": "uint256"
        }
      ],
      "name": "buyInsurance",
      "outputs": [],
      "stateMutability": "payable",
      "type": "function",
      "payable": true
    },
    {
      "inputs": [],
      "name": "withdraw",
      "outputs": [],
      "stateMutability": "nonpayable",
      "type": "function"
    },
    {
      "inputs": [
        {
          "internalType": "address",
          "name": "airline",
          "type": "address"
        },
        {
          "internalType": "string",
          "name": "flight",
          "type": "string"
        },
        {
          "internalType": "uint256",
          "name": "timestamp",
          "type": "uint256"
        }
      ],
      "name": "fetchFlightStatus",
      "outputs": [],
      "stateMutability": "nonpayable",
      "type": "function"
    },
    {
      "inputs": [],
      "name": "registerOracle",
      "outputs": [],
      "stateMutability": "payable",
      "type": "function",
      "payable": true
    },
    {
      "inputs": [],
      "name": "getMyIndexes",
      "outputs": [
        {
          "internalType": "uint8[3]",
          "name": "",
          "type": "uint8[3]"
        }
      ],
      "stateMutability": "view",
      "type": "function",
      "constant": true
    },
    {
      "inputs": [
        {
          "internalType": "uint8",
          "name": "index",
          "type": "uint8"
        },
        {
          "internalType": "address",
          "name": "airline",
          "type": "address"
        },
        {
          "internalType": "string",
          "name": "flight",
          "type": "string"
        },
        {
          "internalType": "uint256",
          "name": "timestamp",
          "type": "uint256"
        },
        {
          "internalType": "uint8",
          "name": "statusCode",
          "type": "uint8"
        }
      ],
      "name": "submitOracleResponse",
      "outputs": [],
      "stateMutability": "nonpayable",
      "type": "function"
    }
  ],
  "bytecode": "0x6080604052670de0b6b3a7640000600255678ac7230489e800006003556000600660006101000a81548160ff021916908360ff1602179055503480156200004557600080fd5b50604051620038083803806200380883398181016040528101906200006b919062000223565b6200008b6200007f620000ed60201b60201c565b620000f560201b60201c565b60008060146101000a81548160ff02191690831515021790555080600160006101000a81548173ffffffffffffffffffffffffffffffffffffffff021916908373ffffffffffffffffffffffffffffffffffffffff1602179055505062000255565b600033905090565b60008060009054906101000a900473ffffffffffffffffffffffffffffffffffffffff169050816000806101000a81548173ffffffffffffffffffffffffffffffffffffffff021916908373ffffffffffffffffffffffffffffffffffffffff1602179055508173ffffffffffffffffffffffffffffffffffffffff168173ffffffffffffffffffffffffffffffffffffffff167f8be0079c531659141344cd1fd0a4f28419497f9722a3daafe3b4186f6b6457e060405160405180910390a35050565b600080fd5b600073ffffffffffffffffffffffffffffffffffffffff82169050919050565b6000620001eb82620001be565b9050919050565b620001fd81620001de565b81146200020957600080fd5b50565b6000815190506200021d81620001f2565b92915050565b6000602082840312156200023c576200023b620001b9565b5b60006200024c848285016200020c565b91505092915050565b6135a380620002656000396000f3fe6080604052600436106100fe5760003560e01c806381a0d00511610095578063b60d428811610064578063b60d428814610283578063bdfd98771461028d578063c10f2700146102b6578063f2fde38b146102df578063f83f11c014610308576100fe565b806381a0d005146101ef5780638456cb59146102185780638da5cb5b1461022f578063ab2934311461025a576100fe565b80635c975abb116100d15780635c975abb146101575780635f1cc0e61461018257806364b4f751146101ad578063715018a6146101d8576100fe565b80632f6721d014610103578063339d25901461011f5780633ccfd60b146101295780633f4ba83a14610140575b600080fd5b61011d600480360381019061011891906121bd565b610331565b005b61012761057f565b005b34801561013557600080fd5b5061013e61066c565b005b34801561014c57600080fd5b506101556106fb565b005b34801561016357600080fd5b5061016c61070d565b604051610179919061224c565b60405180910390f35b34801561018e57600080fd5b50610197610723565b6040516101a4919061231f565b60405180910390f35b3480156101b957600080fd5b506101c2610863565b6040516101cf9190612349565b60405180910390f35b3480156101e457600080fd5b506101ed61086f565b005b3480156101fb57600080fd5b5061021660048036038101906102119190612364565b610883565b005b34801561022457600080fd5b5061022d61089d565b005b34801561023b57600080fd5b506102446108af565b60405161025191906123a0565b60405180910390f35b34801561026657600080fd5b50610281600480360381019061027c9190612364565b6108d8565b005b61028b6108f2565b005b34801561029957600080fd5b506102b460048036038101906102af91906123bb565b610aa2565b005b3480156102c257600080fd5b506102dd60048036038101906102d89190612414565b611142565b005b3480156102eb57600080fd5b50610306600480360381019061030191906123bb565b611508565b005b34801561031457600080fd5b5061032f600480360381019061032a91906121bd565b61158b565b005b61033961179d565b83600160009054906101000a900473ffffffffffffffffffffffffffffffffffffffff1673ffffffffffffffffffffffffffffffffffffffff166361dba32a826040518263ffffffff1660e01b815260040161039591906123a0565b6020604051808303816000875af11580156103b4573d6000803e3d6000fd5b505050506040513d601f19601f820116820180604052508101906103d891906124da565b610417576040517f08c379a000000000000000000000000000000000000000000000000000000000815260040161040e9061258a565b60405180910390fd5b6000341161045a576040517f08c379a0000000000000000000000000000000000000000000000000000000008152600401610451906125f6565b60405180910390fd5b60025434111561049f576040517f08c379a000000000000000000000000000000000000000000000000000000000815260040161049690612662565b60405180910390fd5b4282116104e1576040517f08c379a00000000000000000000000000000000000000000000000000000000081526004016104d8906126f4565b60405180910390fd5b600160009054906101000a900473ffffffffffffffffffffffffffffffffffffffff1673ffffffffffffffffffffffffffffffffffffffff1663869d7b768686868633346040518763ffffffff1660e01b815260040161054696959493929190612761565b600060405180830381600087803b15801561056057600080fd5b505af1158015610574573d6000803e3d6000fd5b505050505050505050565b670de0b6b3a76400003410156105ca576040517f08c379a00000000000000000000000000000000000000000000000000000000081526004016105c190612809565b60405180910390fd5b60006105d5336117e7565b9050604051806040016040528060011515815260200182815250600760003373ffffffffffffffffffffffffffffffffffffffff1673ffffffffffffffffffffffffffffffffffffffff16815260200190815260200160002060008201518160000160006101000a81548160ff021916908315150217905550602082015181600101906003610665929190611fd7565b5090505050565b600160009054906101000a900473ffffffffffffffffffffffffffffffffffffffff1673ffffffffffffffffffffffffffffffffffffffff166331b3eb94336040518263ffffffff1660e01b81526004016106c7919061284a565b600060405180830381600087803b1580156106e157600080fd5b505af11580156106f5573d6000803e3d6000fd5b50505050565b6107036119cd565b61070b611a4b565b565b60008060149054906101000a900460ff16905090565b61072b612071565b600760003373ffffffffffffffffffffffffffffffffffffffff1673ffffffffffffffffffffffffffffffffffffffff16815260200190815260200160002060000160009054906101000a900460ff166107ba576040517f08c379a00000000000000000000000000000000000000000000000000000000081526004016107b1906128b1565b60405180910390fd5b600760003373ffffffffffffffffffffffffffffffffffffffff1673ffffffffffffffffffffffffffffffffffffffff168152602001908152602001600020600101600380602002604051908101604052809291908260038015610859576020028201916000905b82829054906101000a900460ff1660ff16815260200190600101906020826000010492830192600103820291508084116108225790505b5050505050905090565b670de0b6b3a764000081565b6108776119cd565b6108816000611aad565b565b61088b6119cd565b61089361179d565b8060038190555050565b6108a56119cd565b6108ad611b71565b565b60008060009054906101000a900473ffffffffffffffffffffffffffffffffffffffff16905090565b6108e06119cd565b6108e861179d565b8060028190555050565b600160009054906101000a900473ffffffffffffffffffffffffffffffffffffffff1673ffffffffffffffffffffffffffffffffffffffff1663c3c5a547336040518263ffffffff1660e01b815260040161094d91906123a0565b602060405180830381865afa15801561096a573d6000803e3d6000fd5b505050506040513d601f19601f8201168201806040525081019061098e91906124da565b6109cd576040517f08c379a00000000000000000000000000000000000000000000000000000000081526004016109c490612943565b60405180910390fd5b600354341015610a12576040517f08c379a0000000000000000000000000000000000000000000000000000000008152600401610a09906129af565b60405180910390fd5b600160009054906101000a900473ffffffffffffffffffffffffffffffffffffffff1673ffffffffffffffffffffffffffffffffffffffff16632302440834336040518363ffffffff1660e01b8152600401610a6e91906123a0565b6000604051808303818588803b158015610a8757600080fd5b505af1158015610a9b573d6000803e3d6000fd5b5050505050565b610aaa61179d565b33600160009054906101000a900473ffffffffffffffffffffffffffffffffffffffff1673ffffffffffffffffffffffffffffffffffffffff166361dba32a826040518263ffffffff1660e01b8152600401610b0691906123a0565b6020604051808303816000875af1158015610b25573d6000803e3d6000fd5b505050506040513d601f19601f82011682018060405250810190610b4991906124da565b610b88576040517f08c379a0000000000000000000000000000000000000000000000000000000008152600401610b7f9061258a565b60405180910390fd5b6000339050600160009054906101000a900473ffffffffffffffffffffffffffffffffffffffff1673ffffffffffffffffffffffffffffffffffffffff1663c3c5a547846040518263ffffffff1660e01b8152600401610be891906123a0565b602060405180830381865afa158015610c05573d6000803e3d6000fd5b505050506040513d601f19601f82011682018060405250810190610c2991906124da565b15610c69576040517f08c379a0000000000000000000000000000000000000000000000000000000008152600401610c6090612a1b565b60405180910390fd5b600160009054906101000a900473ffffffffffffffffffffffffffffffffffffffff1673ffffffffffffffffffffffffffffffffffffffff1663c3c5a547826040518263ffffffff1660e01b8152600401610cc491906123a0565b602060405180830381865afa158015610ce1573d6000803e3d6000fd5b505050506040513d601f19601f82011682018060405250810190610d0591906124da565b610d44576040517f08c379a0000000000000000000000000000000000000000000000000000000008152600401610d3b90612a87565b60405180910390fd5b6000600160009054906101000a900473ffffffffffffffffffffffffffffffffffffffff1673ffffffffffffffffffffffffffffffffffffffff16637f9e18086040518163ffffffff1660e01b8152600401602060405180830381865afa158015610db3573d6000803e3d6000fd5b505050506040513d601f19601f82011682018060405250810190610dd79190612abc565b90506004811015610e7457600160009054906101000a900473ffffffffffffffffffffffffffffffffffffffff1673ffffffffffffffffffffffffffffffffffffffff1663bdfd9877856040518263ffffffff1660e01b8152600401610e3d91906123a0565b600060405180830381600087803b158015610e5757600080fd5b505af1158015610e6b573d6000803e3d6000fd5b5050505061113c565b6000600460008673ffffffffffffffffffffffffffffffffffffffff1673ffffffffffffffffffffffffffffffffffffffff168152602001908152602001600020905060005b8180549050811015610f84578373ffffffffffffffffffffffffffffffffffffffff16828281548110610ef057610eef612ae9565b5b9060005260206000200160009054906101000a900473ffffffffffffffffffffffffffffffffffffffff1673ffffffffffffffffffffffffffffffffffffffff1603610f71576040517f08c379a0000000000000000000000000000000000000000000000000000000008152600401610f6890612b64565b60405180910390fd5b8080610f7c90612bb3565b915050610eba565b50600060018280549050610f989190612bfb565b90506000600160009054906101000a900473ffffffffffffffffffffffffffffffffffffffff1673ffffffffffffffffffffffffffffffffffffffff16637f9e18086040518163ffffffff1660e01b8152600401602060405180830381865afa158015611009573d6000803e3d6000fd5b505050506040513d601f19601f8201168201806040525081019061102d9190612abc565b905060028161103c9190612c5e565b8211156110d557600160009054906101000a900473ffffffffffffffffffffffffffffffffffffffff1673ffffffffffffffffffffffffffffffffffffffff1663bdfd9877886040518263ffffffff1660e01b815260040161109e91906123a0565b600060405180830381600087803b1580156110b857600080fd5b505af11580156110cc573d6000803e3d6000fd5b50505050611138565b82859080600181540180825580915050600190039060005260206000200160009091909190916101000a81548173ffffffffffffffffffffffffffffffffffffffff021916908373ffffffffffffffffffffffffffffffffffffffff1602179055505b5050505b50505050565b8560ff16600760003373ffffffffffffffffffffffffffffffffffffffff1673ffffffffffffffffffffffffffffffffffffffff16815260200190815260200160002060010160006003811061119b5761119a612ae9565b5b602091828204019190069054906101000a900460ff1660ff16148061122f57508560ff16600760003373ffffffffffffffffffffffffffffffffffffffff1673ffffffffffffffffffffffffffffffffffffffff16815260200190815260200160002060010160016003811061121457611213612ae9565b5b602091828204019190069054906101000a900460ff1660ff16145b806112a957508560ff16600760003373ffffffffffffffffffffffffffffffffffffffff1673ffffffffffffffffffffffffffffffffffffffff16815260200190815260200160002060010160026003811061128e5761128d612ae9565b5b602091828204019190069054906101000a900460ff1660ff16145b6112e8576040517f08c379a00000000000000000000000000000000000000000000000000000000081526004016112df90612d01565b60405180910390fd5b60008686868686604051602001611303959493929190612df0565b6040516020818303038152906040528051906020012090506008600082815260200190815260200160002060000160149054906101000a900460ff1661137e576040517f08c379a000000000000000000000000000000000000000000000000000000000815260040161137590612eae565b60405180910390fd5b6008600082815260200190815260200160002060010160008360ff1660ff168152602001908152602001600020339080600181540180825580915050600190039060005260206000200160009091909190916101000a81548173ffffffffffffffffffffffffffffffffffffffff021916908373ffffffffffffffffffffffffffffffffffffffff1602179055507f43c853095c2752648493c88b4baac4d580d2594ffb00c6f1d4242d844514f7838686868686604051611443959493929190612edd565b60405180910390a160036008600083815260200190815260200160002060010160008460ff1660ff16815260200190815260200160002080549050106114ff577fe23f5229de535c091e3b7bec2665f5d698192d3b31393066e8987b7a05076b6c86868686866040516114ba959493929190612edd565b60405180910390a160006008600083815260200190815260200160002060000160146101000a81548160ff0219169083151502179055506114fe8686868686611bd4565b5b50505050505050565b6115106119cd565b600073ffffffffffffffffffffffffffffffffffffffff168173ffffffffffffffffffffffffffffffffffffffff160361157f576040517f08c379a000000000000000000000000000000000000000000000000000000000815260040161157690612f9d565b60405180910390fd5b61158881611aad565b50565b4281106115cd576040517f08c379a00000000000000000000000000000000000000000000000000000000081526004016115c49061302f565b60405180910390fd5b6000848484846040516020016115e6949392919061304f565b604051602081830303815290604052805190602001209050600060ff166005600083815260200190815260200160002060009054906101000a900460ff1660ff1614611690577fe23f5229de535c091e3b7bec2665f5d698192d3b31393066e8987b7a05076b6c858585856005600087815260200190815260200160002060009054906101000a900460ff16604051611683959493929190612edd565b60405180910390a1611796565b600061169b33611c54565b9050600081878787876040516020016116b8959493929190612df0565b604051602081830303815290604052805190602001209050336008600083815260200190815260200160002060000160006101000a81548173ffffffffffffffffffffffffffffffffffffffff021916908373ffffffffffffffffffffffffffffffffffffffff16021790555060016008600083815260200190815260200160002060000160146101000a81548160ff0219169083151502179055507f3ed01f2c3fc24c6b329d931e35b03e390d23497d22b3f90e15b600343e93df11828888888860405161178b95949392919061308a565b60405180910390a150505b5050505050565b6117a561070d565b156117e5576040517f08c379a00000000000000000000000000000000000000000000000000000000081526004016117dc90613124565b60405180910390fd5b565b6117ef612071565b6117f7612071565b61180083611c54565b8160006003811061181457611813612ae9565b5b602002019060ff16908160ff16815250508060006003811061183957611838612ae9565b5b60200201518160016003811061185257611851612ae9565b5b602002019060ff16908160ff16815250505b8060006003811061187857611877612ae9565b5b602002015160ff168160016003811061189457611893612ae9565b5b602002015160ff16036118d4576118aa83611c54565b816001600381106118be576118bd612ae9565b5b602002019060ff16908160ff1681525050611864565b806001600381106118e8576118e7612ae9565b5b60200201518160026003811061190157611900612ae9565b5b602002019060ff16908160ff16815250505b8060006003811061192757611926612ae9565b5b602002015160ff168160026003811061194357611942612ae9565b5b602002015160ff16148061198c57508060016003811061196657611965612ae9565b5b602002015160ff168160026003811061198257611981612ae9565b5b602002015160ff16145b156119c45761199a83611c54565b816002600381106119ae576119ad612ae9565b5b602002019060ff16908160ff1681525050611913565b80915050919050565b6119d5611d20565b73ffffffffffffffffffffffffffffffffffffffff166119f36108af565b73ffffffffffffffffffffffffffffffffffffffff1614611a49576040517f08c379a0000000000000000000000000000000000000000000000000000000008152600401611a4090613190565b60405180910390fd5b565b611a53611d28565b60008060146101000a81548160ff0219169083151502179055507f5db9ee0a495bf2e6ff9c91a7834c1ba4fdd244a5e8aa4e537bd38aeae4b073aa611a96611d20565b604051611aa391906123a0565b60405180910390a1565b60008060009054906101000a900473ffffffffffffffffffffffffffffffffffffffff169050816000806101000a81548173ffffffffffffffffffffffffffffffffffffffff021916908373ffffffffffffffffffffffffffffffffffffffff1602179055508173ffffffffffffffffffffffffffffffffffffffff168173ffffffffffffffffffffffffffffffffffffffff167f8be0079c531659141344cd1fd0a4f28419497f9722a3daafe3b4186f6b6457e060405160405180910390a35050565b611b7961179d565b6001600060146101000a81548160ff0219169083151502179055507f62e78cea01bee320cd4e420270b5ea74000d11b0c9f74754ebdbfc544b05a258611bbd611d20565b604051611bca91906123a0565b60405180910390a1565b600085858585604051602001611bed949392919061304f565b604051602081830303815290604052805190602001209050816005600083815260200190815260200160002060006101000a81548160ff021916908360ff160217905550601460ff168260ff1603611c4c57611c4b86868686611d71565b5b505050505050565b600080600a905060008160ff166006600081819054906101000a900460ff1680929190611c80906131b0565b91906101000a81548160ff021916908360ff16021790555060ff1643611ca691906131d9565b4085604051602001611cb9929190613238565b6040516020818303038152906040528051906020012060001c611cdc9190613264565b905060fa600660009054906101000a900460ff1660ff161115611d16576000600660006101000a81548160ff021916908360ff1602179055505b8092505050919050565b600033905090565b611d3061070d565b611d6f576040517f08c379a0000000000000000000000000000000000000000000000000000000008152600401611d66906132e1565b60405180910390fd5b565b611d7961179d565b6000600160009054906101000a900473ffffffffffffffffffffffffffffffffffffffff1673ffffffffffffffffffffffffffffffffffffffff1663b31b4f4f868686866040518563ffffffff1660e01b8152600401611ddc9493929190613301565b600060405180830381865afa158015611df9573d6000803e3d6000fd5b505050506040513d6000823e3d601f19601f82011682018060405250810190611e229190613494565b905060005b8151811015611fcf576000600160009054906101000a900473ffffffffffffffffffffffffffffffffffffffff1673ffffffffffffffffffffffffffffffffffffffff166399e9718d88888888888881518110611e8757611e86612ae9565b5b60200260200101516040518663ffffffff1660e01b8152600401611eaf9594939291906134dd565b602060405180830381865afa158015611ecc573d6000803e3d6000fd5b505050506040513d601f19601f82011682018060405250810190611ef09190612abc565b9050600160009054906101000a900473ffffffffffffffffffffffffffffffffffffffff1673ffffffffffffffffffffffffffffffffffffffff16635e40b00488888888888881518110611f4757611f46612ae9565b5b60200260200101516002600389611f5e919061352b565b611f689190612c5e565b6040518763ffffffff1660e01b8152600401611f8996959493929190612761565b600060405180830381600087803b158015611fa357600080fd5b505af1158015611fb7573d6000803e3d6000fd5b50505050508080611fc790612bb3565b915050611e27565b505050505050565b826003601f016020900481019282156120605791602002820160005b8382111561203157835183826101000a81548160ff021916908360ff1602179055509260200192600101602081600001049283019260010302611ff3565b801561205e5782816101000a81549060ff0219169055600101602081600001049283019260010302612031565b505b50905061206d9190612093565b5090565b6040518060600160405280600390602082028036833780820191505090505090565b5b808211156120ac576000816000905550600101612094565b5090565b6000604051905090565b600080fd5b600080fd5b600073ffffffffffffffffffffffffffffffffffffffff82169050919050565b60006120ef826120c4565b9050919050565b6120ff816120e4565b811461210a57600080fd5b50565b60008135905061211c816120f6565b92915050565b600080fd5b600080fd5b600080fd5b60008083601f84011261214757612146612122565b5b8235905067ffffffffffffffff81111561216457612163612127565b5b6020830191508360018202830111156121805761217f61212c565b5b9250929050565b6000819050919050565b61219a81612187565b81146121a557600080fd5b50565b6000813590506121b781612191565b92915050565b600080600080606085870312156121d7576121d66120ba565b5b60006121e58782880161210d565b945050602085013567ffffffffffffffff811115612206576122056120bf565b5b61221287828801612131565b93509350506040612225878288016121a8565b91505092959194509250565b60008115159050919050565b61224681612231565b82525050565b6000602082019050612261600083018461223d565b92915050565b600060039050919050565b600081905092915050565b6000819050919050565b600060ff82169050919050565b61229d81612287565b82525050565b60006122af8383612294565b60208301905092915050565b6000602082019050919050565b6122d181612267565b6122db8184612272565b92506122e68261227d565b8060005b838110156123175781516122fe87826122a3565b9650612309836122bb565b9250506001810190506122ea565b505050505050565b600060608201905061233460008301846122c8565b92915050565b61234381612187565b82525050565b600060208201905061235e600083018461233a565b92915050565b60006020828403121561237a576123796120ba565b5b6000612388848285016121a8565b91505092915050565b61239a816120e4565b82525050565b60006020820190506123b56000830184612391565b92915050565b6000602082840312156123d1576123d06120ba565b5b60006123df8482850161210d565b91505092915050565b6123f181612287565b81146123fc57600080fd5b50565b60008135905061240e816123e8565b92915050565b60008060008060008060a08789031215612431576124306120ba565b5b600061243f89828a016123ff565b965050602061245089828a0161210d565b955050604087013567ffffffffffffffff811115612471576124706120bf565b5b61247d89828a01612131565b9450945050606061249089828a016121a8565b92505060806124a189828a016123ff565b9150509295509295509295565b6124b781612231565b81146124c257600080fd5b50565b6000815190506124d4816124ae565b92915050565b6000602082840312156124f0576124ef6120ba565b5b60006124fe848285016124c5565b91505092915050565b600082825260208201905092915050565b7f4169726c696e65206e6565647320746f2073656e642066756e647320746f207060008201527f6172746963697061746500000000000000000000000000000000000000000000602082015250565b6000612574602a83612507565b915061257f82612518565b604082019050919050565b600060208201905081810360008301526125a381612567565b9050919050565b7f4d697373696e6720696e737572616e636520616d6f756e740000000000000000600082015250565b60006125e0601883612507565b91506125eb826125aa565b602082019050919050565b6000602082019050818103600083015261260f816125d3565b9050919050565b7f41626f7665204d6178696d756d20496e737572616e6365204c696d6974000000600082015250565b600061264c601d83612507565b915061265782612616565b602082019050919050565b6000602082019050818103600083015261267b8161263f565b9050919050565b7f596f752063616e20696e73757265206f6e6c792066757475726520666c69676860008201527f7473000000000000000000000000000000000000000000000000000000000000602082015250565b60006126de602283612507565b91506126e982612682565b604082019050919050565b6000602082019050818103600083015261270d816126d1565b9050919050565b82818337600083830152505050565b6000601f19601f8301169050919050565b60006127408385612507565b935061274d838584612714565b61275683612723565b840190509392505050565b600060a0820190506127766000830189612391565b8181036020830152612789818789612734565b9050612798604083018661233a565b6127a56060830185612391565b6127b2608083018461233a565b979650505050505050565b7f526567697374726174696f6e2066656520697320726571756972656400000000600082015250565b60006127f3601c83612507565b91506127fe826127bd565b602082019050919050565b60006020820190508181036000830152612822816127e6565b9050919050565b6000612834826120c4565b9050919050565b61284481612829565b82525050565b600060208201905061285f600083018461283b565b92915050565b7f4e6f74207265676973746572656420617320616e206f7261636c650000000000600082015250565b600061289b601b83612507565b91506128a682612865565b602082019050919050565b600060208201905081810360008301526128ca8161288e565b9050919050565b7f596f75206e65656420746f20726567697374657220796f757273656c6620666960008201527f7273740000000000000000000000000000000000000000000000000000000000602082015250565b600061292d602383612507565b9150612938826128d1565b604082019050919050565b6000602082019050818103600083015261295c81612920565b9050919050565b7f496e73756666696369656e742066756e64696e67000000000000000000000000600082015250565b6000612999601483612507565b91506129a482612963565b602082019050919050565b600060208201905081810360008301526129c88161298c565b9050919050565b7f416c726561647920526567697374657265640000000000000000000000000000600082015250565b6000612a05601283612507565b9150612a10826129cf565b602082019050919050565b60006020820190508181036000830152612a34816129f8565b9050919050565b7f4e6f7420617574686f7269736564000000000000000000000000000000000000600082015250565b6000612a71600e83612507565b9150612a7c82612a3b565b602082019050919050565b60006020820190508181036000830152612aa081612a64565b9050919050565b600081519050612ab681612191565b92915050565b600060208284031215612ad257612ad16120ba565b5b6000612ae084828501612aa7565b91505092915050565b7f4e487b7100000000000000000000000000000000000000000000000000000000600052603260045260246000fd5b7f596f7527766520616c726561647920766f746564000000000000000000000000600082015250565b6000612b4e601483612507565b9150612b5982612b18565b602082019050919050565b60006020820190508181036000830152612b7d81612b41565b9050919050565b7f4e487b7100000000000000000000000000000000000000000000000000000000600052601160045260246000fd5b6000612bbe82612187565b91507fffffffffffffffffffffffffffffffffffffffffffffffffffffffffffffffff8203612bf057612bef612b84565b5b600182019050919050565b6000612c0682612187565b9150612c1183612187565b9250828201905080821115612c2957612c28612b84565b5b92915050565b7f4e487b7100000000000000000000000000000000000000000000000000000000600052601260045260246000fd5b6000612c6982612187565b9150612c7483612187565b925082612c8457612c83612c2f565b5b828204905092915050565b7f496e64657820646f6573206e6f74206d61746368206f7261636c65207265717560008201527f6573740000000000000000000000000000000000000000000000000000000000602082015250565b6000612ceb602383612507565b9150612cf682612c8f565b604082019050919050565b60006020820190508181036000830152612d1a81612cde565b9050919050565b60008160f81b9050919050565b6000612d3982612d21565b9050919050565b612d51612d4c82612287565b612d2e565b82525050565b60008160601b9050919050565b6000612d6f82612d57565b9050919050565b6000612d8182612d64565b9050919050565b612d99612d94826120e4565b612d76565b82525050565b600081905092915050565b6000612db68385612d9f565b9350612dc3838584612714565b82840190509392505050565b6000819050919050565b612dea612de582612187565b612dcf565b82525050565b6000612dfc8288612d40565b600182019150612e0c8287612d88565b601482019150612e1d828587612daa565b9150612e298284612dd9565b6020820191508190509695505050505050565b7f466c69676874206f722074696d657374616d7020646f206e6f74206d6174636860008201527f206f7261636c6520726571756573740000000000000000000000000000000000602082015250565b6000612e98602f83612507565b9150612ea382612e3c565b604082019050919050565b60006020820190508181036000830152612ec781612e8b565b9050919050565b612ed781612287565b82525050565b6000608082019050612ef26000830188612391565b8181036020830152612f05818688612734565b9050612f14604083018561233a565b612f216060830184612ece565b9695505050505050565b7f4f776e61626c653a206e6577206f776e657220697320746865207a65726f206160008201527f6464726573730000000000000000000000000000000000000000000000000000602082015250565b6000612f87602683612507565b9150612f9282612f2b565b604082019050919050565b60006020820190508181036000830152612fb681612f7a565b9050919050565b7f417661696c61626c65206166746572207363686564756c65642064657061727460008201527f7572650000000000000000000000000000000000000000000000000000000000602082015250565b6000613019602383612507565b915061302482612fbd565b604082019050919050565b600060208201905081810360008301526130488161300c565b9050919050565b600061305b8287612d88565b60148201915061306c828587612daa565b91506130788284612dd9565b60208201915081905095945050505050565b600060808201905061309f6000830188612ece565b6130ac6020830187612391565b81810360408301526130bf818587612734565b90506130ce606083018461233a565b9695505050505050565b7f5061757361626c653a2070617573656400000000000000000000000000000000600082015250565b600061310e601083612507565b9150613119826130d8565b602082019050919050565b6000602082019050818103600083015261313d81613101565b9050919050565b7f4f776e61626c653a2063616c6c6572206973206e6f7420746865206f776e6572600082015250565b600061317a602083612507565b915061318582613144565b602082019050919050565b600060208201905081810360008301526131a98161316d565b9050919050565b60006131bb82612287565b915060ff82036131ce576131cd612b84565b5b600182019050919050565b60006131e482612187565b91506131ef83612187565b925082820390508181111561320757613206612b84565b5b92915050565b6000819050919050565b6000819050919050565b61323261322d8261320d565b613217565b82525050565b60006132448285613221565b6020820191506132548284612d88565b6014820191508190509392505050565b600061326f82612187565b915061327a83612187565b92508261328a57613289612c2f565b5b828206905092915050565b7f5061757361626c653a206e6f7420706175736564000000000000000000000000600082015250565b60006132cb601483612507565b91506132d682613295565b602082019050919050565b600060208201905081810360008301526132fa816132be565b9050919050565b60006060820190506133166000830187612391565b8181036020830152613329818587612734565b9050613338604083018461233a565b95945050505050565b7f4e487b7100000000000000000000000000000000000000000000000000000000600052604160045260246000fd5b61337982612723565b810181811067ffffffffffffffff8211171561339857613397613341565b5b80604052505050565b60006133ab6120b0565b90506133b78282613370565b919050565b600067ffffffffffffffff8211156133d7576133d6613341565b5b602082029050602081019050919050565b6000815190506133f7816120f6565b92915050565b600061341061340b846133bc565b6133a1565b905080838252602082019050602084028301858111156134335761343261212c565b5b835b8181101561345c578061344888826133e8565b845260208401935050602081019050613435565b5050509392505050565b600082601f83011261347b5761347a612122565b5b815161348b8482602086016133fd565b91505092915050565b6000602082840312156134aa576134a96120ba565b5b600082015167ffffffffffffffff8111156134c8576134c76120bf565b5b6134d484828501613466565b91505092915050565b60006080820190506134f26000830188612391565b8181036020830152613505818688612734565b9050613514604083018561233a565b6135216060830184612391565b9695505050505050565b600061353682612187565b915061354183612187565b925082820261354f81612187565b9150828204841483151761356657613565612b84565b5b509291505056fea2646970667358221220da8b3d87df99be285fbab61bee4ec6222467a96e52e8c69e9ad655647b5378f264736f6c63430008110033",
  "immutableReferences": {},
  "source": "// SPDX-License-Identifier: MIT\r\npragma solidity >=0.8.17;\r\n\r\nimport \"@openzeppelin/contracts/access/Ownable.sol\";\r\nimport \"@openzeppelin/contracts/security/Pausable.sol\";\r\n\r\nimport \"./IFlightInsureData.sol\";\r\n\r\ncontract FlightInsureApp is Ownable, Pausable {\r\n    IFlightInsureData private dataContract;\r\n    uint256 private maximumInsuredAmount = 1 ether;\r\n    uint256 private fundRequiredPerAirline = 10 ether;\r\n    mapping(address => address[]) private voters;\r\n\r\n    uint8 private constant STATUS_CODE_UNKNOWN = 0;\r\n    uint8 private constant STATUS_CODE_ON_TIME = 10;\r\n    uint8 private constant STATUS_CODE_LATE_AIRLINE = 20;\r\n    uint8 private constant STATUS_CODE_LATE_WEATHER = 30;\r\n    uint8 private constant STATUS_CODE_LATE_TECHNICAL = 40;\r\n    uint8 private constant STATUS_CODE_LATE_OTHER = 50;\r\n\r\n    constructor(address _dataContract) {\r\n        dataContract = IFlightInsureData(_dataContract);\r\n    }\r\n\r\n    modifier hasFunded(address airline) {\r\n        require(\r\n            dataContract.hasFunded(airline),\r\n            \"Airline needs to send funds to participate\"\r\n        );\r\n        _;\r\n    }\r\n\r\n    function pause() external onlyOwner {\r\n        _pause();\r\n    }\r\n\r\n    function unpause() external onlyOwner {\r\n        _unpause();\r\n    }\r\n\r\n    function updateMaxInsuredamount(uint256 _max)\r\n        external\r\n        onlyOwner\r\n        whenNotPaused\r\n    {\r\n        maximumInsuredAmount = _max;\r\n    }\r\n\r\n    function updateFundRequired(uint256 _fund)\r\n        external\r\n        onlyOwner\r\n        whenNotPaused\r\n    {\r\n        fundRequiredPerAirline = _fund;\r\n    }\r\n\r\n    function registerAirline(address airline)\r\n        external\r\n        whenNotPaused\r\n        hasFunded(msg.sender)\r\n    {\r\n        address sponsoringAirline = msg.sender;\r\n        require(!dataContract.isRegistered(airline), \"Already Registered\");\r\n        require(dataContract.isRegistered(sponsoringAirline), \"Not authorised\");\r\n        uint256 count = dataContract.getAirlineCount();\r\n        if (count < 4) {\r\n            dataContract.registerAirline(airline);\r\n        } else {\r\n            address[] storage supporters = voters[airline];\r\n            for (uint256 i = 0; i < supporters.length; i++) {\r\n                if (supporters[i] == sponsoringAirline) {\r\n                    revert(\"You've already voted\");\r\n                }\r\n            }\r\n            uint256 numSupporters = supporters.length + 1;\r\n            uint256 totalAirlineCount = dataContract.getAirlineCount();\r\n            if (numSupporters > (totalAirlineCount / 2)) {\r\n                dataContract.registerAirline(airline);\r\n            } else {\r\n                supporters.push(sponsoringAirline);\r\n            }\r\n        }\r\n    }\r\n\r\n    function fund() external payable {\r\n        require(\r\n            dataContract.isRegistered(msg.sender),\r\n            \"You need to register yourself first\"\r\n        );\r\n        require(msg.value >= fundRequiredPerAirline, \"Insufficient funding\");\r\n        dataContract.fund{value: msg.value}(msg.sender);\r\n    }\r\n\r\n    function buyInsurance(\r\n        address airline,\r\n        string calldata flight,\r\n        uint256 timestamp\r\n    ) external payable whenNotPaused hasFunded(airline) {\r\n        require(msg.value > 0, \"Missing insurance amount\");\r\n        require(\r\n            msg.value <= maximumInsuredAmount,\r\n            \"Above Maximum Insurance Limit\"\r\n        );\r\n        require(\r\n            timestamp > block.timestamp,\r\n            \"You can insure only future flights\"\r\n        );\r\n\r\n        dataContract.buyInsurance(\r\n            airline,\r\n            flight,\r\n            timestamp,\r\n            msg.sender,\r\n            msg.value\r\n        );\r\n    }\r\n\r\n    function creditInsurees(\r\n        address airline,\r\n        string calldata flight,\r\n        uint256 timestamp\r\n    ) internal whenNotPaused {\r\n        address[] memory insurees = dataContract.getInsurees(\r\n            airline,\r\n            flight,\r\n            timestamp\r\n        );\r\n\r\n        for (uint256 i = 0; i < insurees.length; i++) {\r\n            uint256 amount = dataContract.getInsuranceAmount(\r\n                airline,\r\n                flight,\r\n                timestamp,\r\n                insurees[i]\r\n            );\r\n            dataContract.creditInsuree(\r\n                airline,\r\n                flight,\r\n                timestamp,\r\n                insurees[i],\r\n                (amount * 3) / 2\r\n            );\r\n        }\r\n    }\r\n\r\n    function withdraw() external {\r\n        dataContract.withdrawPayments(payable(msg.sender));\r\n    }\r\n\r\n    mapping(bytes32 => uint8) finalFlightStatus;\r\n\r\n    function processFlightStatus(\r\n        address airline,\r\n        string calldata flight,\r\n        uint256 timestamp,\r\n        uint8 statusCode\r\n    ) internal {\r\n        bytes32 key = keccak256(abi.encodePacked(airline, flight, timestamp));\r\n        finalFlightStatus[key] = statusCode;\r\n        if (statusCode == STATUS_CODE_LATE_AIRLINE) {\r\n            creditInsurees(airline, flight, timestamp);\r\n        }\r\n    }\r\n\r\n    function fetchFlightStatus(\r\n        address airline,\r\n        string calldata flight,\r\n        uint256 timestamp\r\n    ) external {\r\n        require(\r\n            timestamp < block.timestamp,\r\n            \"Available after scheduled departure\"\r\n        );\r\n        bytes32 flightkey = keccak256(\r\n            abi.encodePacked(airline, flight, timestamp)\r\n        );\r\n        if (finalFlightStatus[flightkey] != STATUS_CODE_UNKNOWN) {\r\n            emit FlightStatusInfo(\r\n                airline,\r\n                flight,\r\n                timestamp,\r\n                finalFlightStatus[flightkey]\r\n            );\r\n        } else {\r\n            uint8 idx = getRandomIndex(msg.sender);\r\n            bytes32 key = keccak256(\r\n                abi.encodePacked(idx, airline, flight, timestamp)\r\n            );\r\n            oracleResponses[key].requester = msg.sender;\r\n            oracleResponses[key].isOpen = true;\r\n            emit OracleRequest(idx, airline, flight, timestamp);\r\n        }\r\n    }\r\n\r\n    /// Oracle Code\r\n\r\n    // Incremented to add pseudo-randomness at various points\r\n    uint8 private nonce = 0;\r\n\r\n    // Fee to be paid when registering oracle\r\n    uint256 public constant REGISTRATION_FEE = 1 ether;\r\n\r\n    // Number of oracles that must respond for valid status\r\n    uint256 private constant MIN_RESPONSES = 3;\r\n\r\n    struct Oracle {\r\n        bool isRegistered;\r\n        uint8[3] indexes;\r\n    }\r\n\r\n    // Track all registered oracles\r\n    mapping(address => Oracle) private oracles;\r\n\r\n    // Model for responses from oracles\r\n    struct ResponseInfo {\r\n        address requester; // Account that requested status\r\n        bool isOpen; // If open, oracle responses are accepted\r\n        mapping(uint8 => address[]) responses; // Mapping key is the status code reported\r\n        // This lets us group responses and identify\r\n        // the response that majority of the oracles\r\n    }\r\n\r\n    // Track all oracle responses\r\n    // Key = hash(index, flight, timestamp)\r\n    mapping(bytes32 => ResponseInfo) private oracleResponses;\r\n\r\n    // Event fired each time an oracle submits a response\r\n    event FlightStatusInfo(\r\n        address airline,\r\n        string flight,\r\n        uint256 timestamp,\r\n        uint8 status\r\n    );\r\n\r\n    event OracleReport(\r\n        address airline,\r\n        string flight,\r\n        uint256 timestamp,\r\n        uint8 status\r\n    );\r\n\r\n    // Event fired when flight status request is submitted\r\n    // Oracles track this and if they have a matching index\r\n    // they fetch data and submit a response\r\n    event OracleRequest(\r\n        uint8 index,\r\n        address airline,\r\n        string flight,\r\n        uint256 timestamp\r\n    );\r\n\r\n    // Register an oracle with the contract\r\n    function registerOracle() external payable {\r\n        // Require registration fee\r\n        require(msg.value >= REGISTRATION_FEE, \"Registration fee is required\");\r\n\r\n        uint8[3] memory indexes = generateIndexes(msg.sender);\r\n\r\n        oracles[msg.sender] = Oracle({isRegistered: true, indexes: indexes});\r\n    }\r\n\r\n    function getMyIndexes() external view returns (uint8[3] memory) {\r\n        require(\r\n            oracles[msg.sender].isRegistered,\r\n            \"Not registered as an oracle\"\r\n        );\r\n\r\n        return oracles[msg.sender].indexes;\r\n    }\r\n\r\n    // Called by oracle when a response is available to an outstanding request\r\n    // For the response to be accepted, there must be a pending request that is open\r\n    // and matches one of the three Indexes randomly assigned to the oracle at the\r\n    // time of registration (i.e. uninvited oracles are not welcome)\r\n    function submitOracleResponse(\r\n        uint8 index,\r\n        address airline,\r\n        string calldata flight,\r\n        uint256 timestamp,\r\n        uint8 statusCode\r\n    ) external {\r\n        require(\r\n            (oracles[msg.sender].indexes[0] == index) ||\r\n                (oracles[msg.sender].indexes[1] == index) ||\r\n                (oracles[msg.sender].indexes[2] == index),\r\n            \"Index does not match oracle request\"\r\n        );\r\n\r\n        bytes32 key = keccak256(\r\n            abi.encodePacked(index, airline, flight, timestamp)\r\n        );\r\n        require(\r\n            oracleResponses[key].isOpen,\r\n            \"Flight or timestamp do not match oracle request\"\r\n        );\r\n\r\n        oracleResponses[key].responses[statusCode].push(msg.sender);\r\n\r\n        // Information isn't considered verified until at least MIN_RESPONSES\r\n        // oracles respond with the *** same *** information\r\n        emit OracleReport(airline, flight, timestamp, statusCode);\r\n        if (\r\n            oracleResponses[key].responses[statusCode].length >= MIN_RESPONSES\r\n        ) {\r\n            emit FlightStatusInfo(airline, flight, timestamp, statusCode);\r\n            oracleResponses[key].isOpen = false;\r\n            // Handle flight status as appropriate\r\n            processFlightStatus(airline, flight, timestamp, statusCode);\r\n        }\r\n    }\r\n\r\n    // Returns array of three non-duplicating integers from 0-9\r\n    function generateIndexes(address account)\r\n        internal\r\n        returns (uint8[3] memory)\r\n    {\r\n        uint8[3] memory indexes;\r\n        indexes[0] = getRandomIndex(account);\r\n\r\n        indexes[1] = indexes[0];\r\n        while (indexes[1] == indexes[0]) {\r\n            indexes[1] = getRandomIndex(account);\r\n        }\r\n\r\n        indexes[2] = indexes[1];\r\n        while ((indexes[2] == indexes[0]) || (indexes[2] == indexes[1])) {\r\n            indexes[2] = getRandomIndex(account);\r\n        }\r\n\r\n        return indexes;\r\n    }\r\n\r\n    // Returns array of three non-duplicating integers from 0-9\r\n    function getRandomIndex(address account) internal returns (uint8) {\r\n        uint8 maxValue = 10;\r\n\r\n        // Pseudo random number...the incrementing nonce adds variation\r\n        uint8 random = uint8(\r\n            uint256(\r\n                keccak256(\r\n                    abi.encodePacked(blockhash(block.number - nonce++), account)\r\n                )\r\n            ) % maxValue\r\n        );\r\n\r\n        if (nonce > 250) {\r\n            nonce = 0; // Can only fetch blockhashes for last 256 blocks so we adapt\r\n        }\r\n\r\n        return random;\r\n    }\r\n\r\n    // endregion\r\n}\r\n",
  "sourcePath": "C:\\Users\\skar\\code\\FlightInsure\\contracts\\FlightInsureApp.sol",
  "compiler": {
    "name": "solc",
    "version": "0.8.17+commit.8df45f5f.Emscripten.clang"
  },
  "schemaVersion": "3.4.11",
  "updatedAt": "2023-01-03T12:30:01.211Z",
  "networkType": "ethereum",
  "devdoc": {
    "kind": "dev",
    "methods": {
      "owner()": {
        "details": "Returns the address of the current owner."
      },
      "paused()": {
        "details": "Returns true if the contract is paused, and false otherwise."
      },
      "renounceOwnership()": {
        "details": "Leaves the contract without owner. It will not be possible to call `onlyOwner` functions anymore. Can only be called by the current owner. NOTE: Renouncing ownership will leave the contract without an owner, thereby removing any functionality that is only available to the owner."
      },
      "transferOwnership(address)": {
        "details": "Transfers ownership of the contract to a new account (`newOwner`). Can only be called by the current owner."
      }
    },
    "version": 1
  },
  "userdoc": {
    "kind": "user",
    "methods": {},
    "version": 1
  }
}