{
  "contractName": "FlightInsureData",
  "abi": [
    {
      "anonymous": false,
      "inputs": [
        {
          "indexed": true,
          "internalType": "address",
          "name": "previousOwner",
          "type": "address"
        },
        {
          "indexed": true,
          "internalType": "address",
          "name": "newOwner",
          "type": "address"
        }
      ],
      "name": "OwnershipTransferred",
      "type": "event"
    },
    {
      "anonymous": false,
      "inputs": [
        {
          "indexed": false,
          "internalType": "address",
          "name": "account",
          "type": "address"
        }
      ],
      "name": "Paused",
      "type": "event"
    },
    {
      "anonymous": false,
      "inputs": [
        {
          "indexed": false,
          "internalType": "address",
          "name": "account",
          "type": "address"
        }
      ],
      "name": "Unpaused",
      "type": "event"
    },
    {
      "inputs": [],
      "name": "owner",
      "outputs": [
        {
          "internalType": "address",
          "name": "",
          "type": "address"
        }
      ],
      "stateMutability": "view",
      "type": "function",
      "constant": true
    },
    {
      "inputs": [],
      "name": "paused",
      "outputs": [
        {
          "internalType": "bool",
          "name": "",
          "type": "bool"
        }
      ],
      "stateMutability": "view",
      "type": "function",
      "constant": true
    },
    {
      "inputs": [
        {
          "internalType": "address",
          "name": "dest",
          "type": "address"
        }
      ],
      "name": "payments",
      "outputs": [
        {
          "internalType": "uint256",
          "name": "",
          "type": "uint256"
        }
      ],
      "stateMutability": "view",
      "type": "function",
      "constant": true
    },
    {
      "inputs": [],
      "name": "renounceOwnership",
      "outputs": [],
      "stateMutability": "nonpayable",
      "type": "function"
    },
    {
      "inputs": [
        {
          "internalType": "address",
          "name": "newOwner",
          "type": "address"
        }
      ],
      "name": "transferOwnership",
      "outputs": [],
      "stateMutability": "nonpayable",
      "type": "function"
    },
    {
      "inputs": [
        {
          "internalType": "address payable",
          "name": "payee",
          "type": "address"
        }
      ],
      "name": "withdrawPayments",
      "outputs": [],
      "stateMutability": "nonpayable",
      "type": "function"
    },
    {
      "stateMutability": "payable",
      "type": "receive",
      "payable": true
    },
    {
      "inputs": [
        {
          "internalType": "address",
          "name": "airline",
          "type": "address"
        }
      ],
      "name": "hasFunded",
      "outputs": [
        {
          "internalType": "bool",
          "name": "",
          "type": "bool"
        }
      ],
      "stateMutability": "view",
      "type": "function",
      "constant": true
    },
    {
      "inputs": [
        {
          "internalType": "address",
          "name": "airline",
          "type": "address"
        },
        {
          "internalType": "string",
          "name": "flight",
          "type": "string"
        },
        {
          "internalType": "uint256",
          "name": "timestamp",
          "type": "uint256"
        }
      ],
      "name": "getInsurees",
      "outputs": [
        {
          "internalType": "address[]",
          "name": "",
          "type": "address[]"
        }
      ],
      "stateMutability": "view",
      "type": "function",
      "constant": true
    },
    {
      "inputs": [
        {
          "internalType": "address",
          "name": "airline",
          "type": "address"
        },
        {
          "internalType": "string",
          "name": "flight",
          "type": "string"
        },
        {
          "internalType": "uint256",
          "name": "timestamp",
          "type": "uint256"
        },
        {
          "internalType": "address",
          "name": "insuree",
          "type": "address"
        }
      ],
      "name": "getInsuranceAmount",
      "outputs": [
        {
          "internalType": "uint256",
          "name": "",
          "type": "uint256"
        }
      ],
      "stateMutability": "view",
      "type": "function",
      "constant": true
    },
    {
      "inputs": [
        {
          "internalType": "address",
          "name": "_appContract",
          "type": "address"
        }
      ],
      "name": "setApp",
      "outputs": [],
      "stateMutability": "nonpayable",
      "type": "function"
    },
    {
      "inputs": [
        {
          "internalType": "address",
          "name": "airline",
          "type": "address"
        }
      ],
      "name": "isRegistered",
      "outputs": [
        {
          "internalType": "bool",
          "name": "",
          "type": "bool"
        }
      ],
      "stateMutability": "view",
      "type": "function",
      "constant": true
    },
    {
      "inputs": [],
      "name": "pause",
      "outputs": [],
      "stateMutability": "nonpayable",
      "type": "function"
    },
    {
      "inputs": [],
      "name": "unpause",
      "outputs": [],
      "stateMutability": "nonpayable",
      "type": "function"
    },
    {
      "inputs": [
        {
          "internalType": "address",
          "name": "airline",
          "type": "address"
        }
      ],
      "name": "registerAirline",
      "outputs": [],
      "stateMutability": "nonpayable",
      "type": "function"
    },
    {
      "inputs": [],
      "name": "getAirlineCount",
      "outputs": [
        {
          "internalType": "uint256",
          "name": "",
          "type": "uint256"
        }
      ],
      "stateMutability": "view",
      "type": "function",
      "constant": true
    },
    {
      "inputs": [
        {
          "internalType": "address",
          "name": "airline",
          "type": "address"
        },
        {
          "internalType": "string",
          "name": "flight",
          "type": "string"
        },
        {
          "internalType": "uint256",
          "name": "timestamp",
          "type": "uint256"
        },
        {
          "internalType": "address",
          "name": "insuree",
          "type": "address"
        },
        {
          "internalType": "uint256",
          "name": "amount",
          "type": "uint256"
        }
      ],
      "name": "buyInsurance",
      "outputs": [],
      "stateMutability": "nonpayable",
      "type": "function"
    },
    {
      "inputs": [
        {
          "internalType": "address",
          "name": "airline",
          "type": "address"
        },
        {
          "internalType": "string",
          "name": "flight",
          "type": "string"
        },
        {
          "internalType": "uint256",
          "name": "timestamp",
          "type": "uint256"
        },
        {
          "internalType": "address",
          "name": "insuree",
          "type": "address"
        },
        {
          "internalType": "uint256",
          "name": "amount",
          "type": "uint256"
        }
      ],
      "name": "creditInsuree",
      "outputs": [],
      "stateMutability": "nonpayable",
      "type": "function"
    },
    {
      "inputs": [
        {
          "internalType": "address",
          "name": "insuree",
          "type": "address"
        }
      ],
      "name": "withdraw",
      "outputs": [],
      "stateMutability": "nonpayable",
      "type": "function"
    },
    {
      "inputs": [
        {
          "internalType": "address",
          "name": "airline",
          "type": "address"
        }
      ],
      "name": "fund",
      "outputs": [],
      "stateMutability": "payable",
      "type": "function",
      "payable": true
    },
    {
      "inputs": [],
      "name": "testingPause",
      "outputs": [],
      "stateMutability": "view",
      "type": "function",
      "constant": true
    }
  ],
  "bytecode": "0x60a06040523480156200001157600080fd5b506200003262000026620000b160201b60201c565b620000b960201b60201c565b60008060146101000a81548160ff0219169083151502179055506040516200005a906200017d565b604051809103906000f08015801562000077573d6000803e3d6000fd5b5073ffffffffffffffffffffffffffffffffffffffff1660808173ffffffffffffffffffffffffffffffffffffffff16815250506200018b565b600033905090565b60008060009054906101000a900473ffffffffffffffffffffffffffffffffffffffff169050816000806101000a81548173ffffffffffffffffffffffffffffffffffffffff021916908373ffffffffffffffffffffffffffffffffffffffff1602179055508173ffffffffffffffffffffffffffffffffffffffff168173ffffffffffffffffffffffffffffffffffffffff167f8be0079c531659141344cd1fd0a4f28419497f9722a3daafe3b4186f6b6457e060405160405180910390a35050565b610ba18062001e3a83390190565b608051611c85620001b56000396000818161051d01528181610e4101526110c80152611c856000f3fe6080604052600436106101235760003560e01c80638456cb59116100a0578063bcdfd53d11610064578063bcdfd53d14610395578063bdfd9877146103ac578063c3c5a547146103d5578063e2982c2114610412578063f2fde38b1461044f5761012a565b80638456cb59146102b0578063869d7b76146102c75780638da5cb5b146102f057806399e9718d1461031b578063b31b4f4f146103585761012a565b80635c975abb116100e75780635c975abb146101dd5780635e40b0041461020857806361dba32a14610231578063715018a61461026e5780637f9e1808146102855761012a565b8063230244081461012f57806331b3eb941461014b5780633f4ba83a146101745780633f68b1191461018b57806351cff8d9146101b45761012a565b3661012a57005b600080fd5b61014960048036038101906101449190611336565b610478565b005b34801561015757600080fd5b50610172600480360381019061016d91906113a1565b61051b565b005b34801561018057600080fd5b506101896105a9565b005b34801561019757600080fd5b506101b260048036038101906101ad9190611336565b6105bb565b005b3480156101c057600080fd5b506101db60048036038101906101d69190611336565b610607565b005b3480156101e957600080fd5b506101f26106ab565b6040516101ff91906113e9565b60405180910390f35b34801561021457600080fd5b5061022f600480360381019061022a919061149f565b6106c1565b005b34801561023d57600080fd5b5061025860048036038101906102539190611336565b610889565b60405161026591906113e9565b60405180910390f35b34801561027a57600080fd5b506102836108df565b005b34801561029157600080fd5b5061029a6108f3565b6040516102a79190611548565b60405180910390f35b3480156102bc57600080fd5b506102c5610900565b005b3480156102d357600080fd5b506102ee60048036038101906102e9919061149f565b610912565b005b3480156102fc57600080fd5b50610305610ab2565b6040516103129190611572565b60405180910390f35b34801561032757600080fd5b50610342600480360381019061033d919061158d565b610adb565b60405161034f9190611548565b60405180910390f35b34801561036457600080fd5b5061037f600480360381019061037a9190611615565b610b4c565b60405161038c9190611747565b60405180910390f35b3480156103a157600080fd5b506103aa610c01565b005b3480156103b857600080fd5b506103d360048036038101906103ce9190611336565b610c0b565b005b3480156103e157600080fd5b506103fc60048036038101906103f79190611336565b610de7565b60405161040991906113e9565b60405180910390f35b34801561041e57600080fd5b5061043960048036038101906104349190611336565b610e3d565b6040516104469190611548565b60405180910390f35b34801561045b57600080fd5b5061047660048036038101906104719190611336565b610ee0565b005b61048181610de7565b6104c0576040517f08c379a00000000000000000000000000000000000000000000000000000000081526004016104b7906117c6565b60405180910390fd5b6001600360008373ffffffffffffffffffffffffffffffffffffffff1673ffffffffffffffffffffffffffffffffffffffff16815260200190815260200160002060006101000a81548160ff02191690831515021790555050565b7f000000000000000000000000000000000000000000000000000000000000000073ffffffffffffffffffffffffffffffffffffffff166351cff8d9826040518263ffffffff1660e01b815260040161057491906117f5565b600060405180830381600087803b15801561058e57600080fd5b505af11580156105a2573d6000803e3d6000fd5b5050505050565b6105b1610f63565b6105b9610fe1565b565b6105c3610f63565b80600260006101000a81548173ffffffffffffffffffffffffffffffffffffffff021916908373ffffffffffffffffffffffffffffffffffffffff16021790555050565b600260009054906101000a900473ffffffffffffffffffffffffffffffffffffffff1673ffffffffffffffffffffffffffffffffffffffff163373ffffffffffffffffffffffffffffffffffffffff1614610697576040517f08c379a000000000000000000000000000000000000000000000000000000000815260040161068e9061185c565b60405180910390fd5b61069f611043565b6106a88161051b565b50565b60008060149054906101000a900460ff16905090565b600260009054906101000a900473ffffffffffffffffffffffffffffffffffffffff1673ffffffffffffffffffffffffffffffffffffffff163373ffffffffffffffffffffffffffffffffffffffff1614610751576040517f08c379a00000000000000000000000000000000000000000000000000000000081526004016107489061185c565b60405180910390fd5b610759611043565b60006107678787878761108d565b90506006600082815260200190815260200160002060008473ffffffffffffffffffffffffffffffffffffffff1673ffffffffffffffffffffffffffffffffffffffff16815260200190815260200160002060010160009054906101000a900460ff161561080a576040517f08c379a0000000000000000000000000000000000000000000000000000000008152600401610801906118c8565b60405180910390fd5b60016006600083815260200190815260200160002060008573ffffffffffffffffffffffffffffffffffffffff1673ffffffffffffffffffffffffffffffffffffffff16815260200190815260200160002060010160006101000a81548160ff02191690831515021790555061088083836110c6565b50505050505050565b6000600360008373ffffffffffffffffffffffffffffffffffffffff1673ffffffffffffffffffffffffffffffffffffffff16815260200190815260200160002060009054906101000a900460ff169050919050565b6108e7610f63565b6108f16000611156565b565b6000600180549050905090565b610908610f63565b61091061121a565b565b61091a611043565b600260009054906101000a900473ffffffffffffffffffffffffffffffffffffffff1673ffffffffffffffffffffffffffffffffffffffff163373ffffffffffffffffffffffffffffffffffffffff16146109aa576040517f08c379a00000000000000000000000000000000000000000000000000000000081526004016109a19061185c565b60405180910390fd5b60006109b88787878761108d565b905060056000828152602001908152602001600020839080600181540180825580915050600190039060005260206000200160009091909190916101000a81548173ffffffffffffffffffffffffffffffffffffffff021916908373ffffffffffffffffffffffffffffffffffffffff16021790555060006006600083815260200190815260200160002060008573ffffffffffffffffffffffffffffffffffffffff1673ffffffffffffffffffffffffffffffffffffffff168152602001908152602001600020905082816000018190555060008160010160006101000a81548160ff0219169083151502179055505050505050505050565b60008060009054906101000a900473ffffffffffffffffffffffffffffffffffffffff16905090565b600080610aea8787878761108d565b90506006600082815260200190815260200160002060008473ffffffffffffffffffffffffffffffffffffffff1673ffffffffffffffffffffffffffffffffffffffff1681526020019081526020016000206000015491505095945050505050565b60606000610b5c8686868661108d565b905060056000828152602001908152602001600020805480602002602001604051908101604052809291908181526020018280548015610bf157602002820191906000526020600020905b8160009054906101000a900473ffffffffffffffffffffffffffffffffffffffff1673ffffffffffffffffffffffffffffffffffffffff1681526020019060010190808311610ba7575b5050505050915050949350505050565b610c09611043565b565b610c13611043565b600260009054906101000a900473ffffffffffffffffffffffffffffffffffffffff1673ffffffffffffffffffffffffffffffffffffffff163373ffffffffffffffffffffffffffffffffffffffff161480610ca15750610c72610ab2565b73ffffffffffffffffffffffffffffffffffffffff163373ffffffffffffffffffffffffffffffffffffffff16145b610ce0576040517f08c379a0000000000000000000000000000000000000000000000000000000008152600401610cd79061185c565b60405180910390fd5b610ce981610de7565b15610d29576040517f08c379a0000000000000000000000000000000000000000000000000000000008152600401610d2090611934565b60405180910390fd5b6001819080600181540180825580915050600190039060005260206000200160009091909190916101000a81548173ffffffffffffffffffffffffffffffffffffffff021916908373ffffffffffffffffffffffffffffffffffffffff1602179055506001600460008373ffffffffffffffffffffffffffffffffffffffff1673ffffffffffffffffffffffffffffffffffffffff16815260200190815260200160002060006101000a81548160ff02191690831515021790555050565b6000600460008373ffffffffffffffffffffffffffffffffffffffff1673ffffffffffffffffffffffffffffffffffffffff16815260200190815260200160002060009054906101000a900460ff169050919050565b60007f000000000000000000000000000000000000000000000000000000000000000073ffffffffffffffffffffffffffffffffffffffff1663e3a9db1a836040518263ffffffff1660e01b8152600401610e989190611572565b602060405180830381865afa158015610eb5573d6000803e3d6000fd5b505050506040513d601f19601f82011682018060405250810190610ed99190611969565b9050919050565b610ee8610f63565b600073ffffffffffffffffffffffffffffffffffffffff168173ffffffffffffffffffffffffffffffffffffffff1603610f57576040517f08c379a0000000000000000000000000000000000000000000000000000000008152600401610f4e90611a08565b60405180910390fd5b610f6081611156565b50565b610f6b61127d565b73ffffffffffffffffffffffffffffffffffffffff16610f89610ab2565b73ffffffffffffffffffffffffffffffffffffffff1614610fdf576040517f08c379a0000000000000000000000000000000000000000000000000000000008152600401610fd690611a74565b60405180910390fd5b565b610fe9611285565b60008060146101000a81548160ff0219169083151502179055507f5db9ee0a495bf2e6ff9c91a7834c1ba4fdd244a5e8aa4e537bd38aeae4b073aa61102c61127d565b6040516110399190611572565b60405180910390a1565b61104b6106ab565b1561108b576040517f08c379a000000000000000000000000000000000000000000000000000000000815260040161108290611ae0565b60405180910390fd5b565b6000848484846040516020016110a69493929190611ba8565b604051602081830303815290604052805190602001209050949350505050565b7f000000000000000000000000000000000000000000000000000000000000000073ffffffffffffffffffffffffffffffffffffffff1663f340fa0182846040518363ffffffff1660e01b81526004016111209190611572565b6000604051808303818588803b15801561113957600080fd5b505af115801561114d573d6000803e3d6000fd5b50505050505050565b60008060009054906101000a900473ffffffffffffffffffffffffffffffffffffffff169050816000806101000a81548173ffffffffffffffffffffffffffffffffffffffff021916908373ffffffffffffffffffffffffffffffffffffffff1602179055508173ffffffffffffffffffffffffffffffffffffffff168173ffffffffffffffffffffffffffffffffffffffff167f8be0079c531659141344cd1fd0a4f28419497f9722a3daafe3b4186f6b6457e060405160405180910390a35050565b611222611043565b6001600060146101000a81548160ff0219169083151502179055507f62e78cea01bee320cd4e420270b5ea74000d11b0c9f74754ebdbfc544b05a25861126661127d565b6040516112739190611572565b60405180910390a1565b600033905090565b61128d6106ab565b6112cc576040517f08c379a00000000000000000000000000000000000000000000000000000000081526004016112c390611c2f565b60405180910390fd5b565b600080fd5b600080fd5b600073ffffffffffffffffffffffffffffffffffffffff82169050919050565b6000611303826112d8565b9050919050565b611313816112f8565b811461131e57600080fd5b50565b6000813590506113308161130a565b92915050565b60006020828403121561134c5761134b6112ce565b5b600061135a84828501611321565b91505092915050565b600061136e826112d8565b9050919050565b61137e81611363565b811461138957600080fd5b50565b60008135905061139b81611375565b92915050565b6000602082840312156113b7576113b66112ce565b5b60006113c58482850161138c565b91505092915050565b60008115159050919050565b6113e3816113ce565b82525050565b60006020820190506113fe60008301846113da565b92915050565b600080fd5b600080fd5b600080fd5b60008083601f84011261142957611428611404565b5b8235905067ffffffffffffffff81111561144657611445611409565b5b6020830191508360018202830111156114625761146161140e565b5b9250929050565b6000819050919050565b61147c81611469565b811461148757600080fd5b50565b60008135905061149981611473565b92915050565b60008060008060008060a087890312156114bc576114bb6112ce565b5b60006114ca89828a01611321565b965050602087013567ffffffffffffffff8111156114eb576114ea6112d3565b5b6114f789828a01611413565b9550955050604061150a89828a0161148a565b935050606061151b89828a01611321565b925050608061152c89828a0161148a565b9150509295509295509295565b61154281611469565b82525050565b600060208201905061155d6000830184611539565b92915050565b61156c816112f8565b82525050565b60006020820190506115876000830184611563565b92915050565b6000806000806000608086880312156115a9576115a86112ce565b5b60006115b788828901611321565b955050602086013567ffffffffffffffff8111156115d8576115d76112d3565b5b6115e488828901611413565b945094505060406115f78882890161148a565b925050606061160888828901611321565b9150509295509295909350565b6000806000806060858703121561162f5761162e6112ce565b5b600061163d87828801611321565b945050602085013567ffffffffffffffff81111561165e5761165d6112d3565b5b61166a87828801611413565b9350935050604061167d8782880161148a565b91505092959194509250565b600081519050919050565b600082825260208201905092915050565b6000819050602082019050919050565b6116be816112f8565b82525050565b60006116d083836116b5565b60208301905092915050565b6000602082019050919050565b60006116f482611689565b6116fe8185611694565b9350611709836116a5565b8060005b8381101561173a57815161172188826116c4565b975061172c836116dc565b92505060018101905061170d565b5085935050505092915050565b6000602082019050818103600083015261176181846116e9565b905092915050565b600082825260208201905092915050565b7f4e65656420746f20726567697374657220666972737400000000000000000000600082015250565b60006117b0601683611769565b91506117bb8261177a565b602082019050919050565b600060208201905081810360008301526117df816117a3565b9050919050565b6117ef81611363565b82525050565b600060208201905061180a60008301846117e6565b92915050565b7f4e6f7420617574686f7269736564000000000000000000000000000000000000600082015250565b6000611846600e83611769565b915061185182611810565b602082019050919050565b6000602082019050818103600083015261187581611839565b9050919050565b7f416c726561647920437265646974656400000000000000000000000000000000600082015250565b60006118b2601083611769565b91506118bd8261187c565b602082019050919050565b600060208201905081810360008301526118e1816118a5565b9050919050565b7f4169726c696e6520616c72656164792072656769737465726564000000000000600082015250565b600061191e601a83611769565b9150611929826118e8565b602082019050919050565b6000602082019050818103600083015261194d81611911565b9050919050565b60008151905061196381611473565b92915050565b60006020828403121561197f5761197e6112ce565b5b600061198d84828501611954565b91505092915050565b7f4f776e61626c653a206e6577206f776e657220697320746865207a65726f206160008201527f6464726573730000000000000000000000000000000000000000000000000000602082015250565b60006119f2602683611769565b91506119fd82611996565b604082019050919050565b60006020820190508181036000830152611a21816119e5565b9050919050565b7f4f776e61626c653a2063616c6c6572206973206e6f7420746865206f776e6572600082015250565b6000611a5e602083611769565b9150611a6982611a28565b602082019050919050565b60006020820190508181036000830152611a8d81611a51565b9050919050565b7f5061757361626c653a2070617573656400000000000000000000000000000000600082015250565b6000611aca601083611769565b9150611ad582611a94565b602082019050919050565b60006020820190508181036000830152611af981611abd565b9050919050565b60008160601b9050919050565b6000611b1882611b00565b9050919050565b6000611b2a82611b0d565b9050919050565b611b42611b3d826112f8565b611b1f565b82525050565b600081905092915050565b82818337600083830152505050565b6000611b6e8385611b48565b9350611b7b838584611b53565b82840190509392505050565b6000819050919050565b611ba2611b9d82611469565b611b87565b82525050565b6000611bb48287611b31565b601482019150611bc5828587611b62565b9150611bd18284611b91565b60208201915081905095945050505050565b7f5061757361626c653a206e6f7420706175736564000000000000000000000000600082015250565b6000611c19601483611769565b9150611c2482611be3565b602082019050919050565b60006020820190508181036000830152611c4881611c0c565b905091905056fea264697066735822122037f2251b895fe02c4aa7ef1cd8a0b23c76556a8e4456db2b223a0fde06f19c0864736f6c63430008110033608060405234801561001057600080fd5b5061002d61002261003260201b60201c565b61003a60201b60201c565b6100fe565b600033905090565b60008060009054906101000a900473ffffffffffffffffffffffffffffffffffffffff169050816000806101000a81548173ffffffffffffffffffffffffffffffffffffffff021916908373ffffffffffffffffffffffffffffffffffffffff1602179055508173ffffffffffffffffffffffffffffffffffffffff168173ffffffffffffffffffffffffffffffffffffffff167f8be0079c531659141344cd1fd0a4f28419497f9722a3daafe3b4186f6b6457e060405160405180910390a35050565b610a948061010d6000396000f3fe6080604052600436106100555760003560e01c806351cff8d91461005a578063715018a6146100835780638da5cb5b1461009a578063e3a9db1a146100c5578063f2fde38b14610102578063f340fa011461012b575b600080fd5b34801561006657600080fd5b50610081600480360381019061007c91906106b2565b610147565b005b34801561008f57600080fd5b50610098610253565b005b3480156100a657600080fd5b506100af610267565b6040516100bc9190610700565b60405180910390f35b3480156100d157600080fd5b506100ec60048036038101906100e79190610747565b610290565b6040516100f9919061078d565b60405180910390f35b34801561010e57600080fd5b5061012960048036038101906101249190610747565b6102d9565b005b61014560048036038101906101409190610747565b61035c565b005b61014f610411565b6000600160008373ffffffffffffffffffffffffffffffffffffffff1673ffffffffffffffffffffffffffffffffffffffff1681526020019081526020016000205490506000600160008473ffffffffffffffffffffffffffffffffffffffff1673ffffffffffffffffffffffffffffffffffffffff16815260200190815260200160002081905550610201818373ffffffffffffffffffffffffffffffffffffffff1661048f90919063ffffffff16565b8173ffffffffffffffffffffffffffffffffffffffff167f7084f5476618d8e60b11ef0d7d3f06914655adb8793e28ff7f018d4c76d505d582604051610247919061078d565b60405180910390a25050565b61025b610411565b6102656000610583565b565b60008060009054906101000a900473ffffffffffffffffffffffffffffffffffffffff16905090565b6000600160008373ffffffffffffffffffffffffffffffffffffffff1673ffffffffffffffffffffffffffffffffffffffff168152602001908152602001600020549050919050565b6102e1610411565b600073ffffffffffffffffffffffffffffffffffffffff168173ffffffffffffffffffffffffffffffffffffffff1603610350576040517f08c379a00000000000000000000000000000000000000000000000000000000081526004016103479061082b565b60405180910390fd5b61035981610583565b50565b610364610411565b600034905080600160008473ffffffffffffffffffffffffffffffffffffffff1673ffffffffffffffffffffffffffffffffffffffff16815260200190815260200160002060008282546103b8919061087a565b925050819055508173ffffffffffffffffffffffffffffffffffffffff167f2da466a7b24304f47e87fa2e1e5a81b9831ce54fec19055ce277ca2f39ba42c482604051610405919061078d565b60405180910390a25050565b610419610647565b73ffffffffffffffffffffffffffffffffffffffff16610437610267565b73ffffffffffffffffffffffffffffffffffffffff161461048d576040517f08c379a0000000000000000000000000000000000000000000000000000000008152600401610484906108fa565b60405180910390fd5b565b804710156104d2576040517f08c379a00000000000000000000000000000000000000000000000000000000081526004016104c990610966565b60405180910390fd5b60008273ffffffffffffffffffffffffffffffffffffffff16826040516104f8906109b7565b60006040518083038185875af1925050503d8060008114610535576040519150601f19603f3d011682016040523d82523d6000602084013e61053a565b606091505b505090508061057e576040517f08c379a000000000000000000000000000000000000000000000000000000000815260040161057590610a3e565b60405180910390fd5b505050565b60008060009054906101000a900473ffffffffffffffffffffffffffffffffffffffff169050816000806101000a81548173ffffffffffffffffffffffffffffffffffffffff021916908373ffffffffffffffffffffffffffffffffffffffff1602179055508173ffffffffffffffffffffffffffffffffffffffff168173ffffffffffffffffffffffffffffffffffffffff167f8be0079c531659141344cd1fd0a4f28419497f9722a3daafe3b4186f6b6457e060405160405180910390a35050565b600033905090565b600080fd5b600073ffffffffffffffffffffffffffffffffffffffff82169050919050565b600061067f82610654565b9050919050565b61068f81610674565b811461069a57600080fd5b50565b6000813590506106ac81610686565b92915050565b6000602082840312156106c8576106c761064f565b5b60006106d68482850161069d565b91505092915050565b60006106ea82610654565b9050919050565b6106fa816106df565b82525050565b600060208201905061071560008301846106f1565b92915050565b610724816106df565b811461072f57600080fd5b50565b6000813590506107418161071b565b92915050565b60006020828403121561075d5761075c61064f565b5b600061076b84828501610732565b91505092915050565b6000819050919050565b61078781610774565b82525050565b60006020820190506107a2600083018461077e565b92915050565b600082825260208201905092915050565b7f4f776e61626c653a206e6577206f776e657220697320746865207a65726f206160008201527f6464726573730000000000000000000000000000000000000000000000000000602082015250565b60006108156026836107a8565b9150610820826107b9565b604082019050919050565b6000602082019050818103600083015261084481610808565b9050919050565b7f4e487b7100000000000000000000000000000000000000000000000000000000600052601160045260246000fd5b600061088582610774565b915061089083610774565b92508282019050808211156108a8576108a761084b565b5b92915050565b7f4f776e61626c653a2063616c6c6572206973206e6f7420746865206f776e6572600082015250565b60006108e46020836107a8565b91506108ef826108ae565b602082019050919050565b60006020820190508181036000830152610913816108d7565b9050919050565b7f416464726573733a20696e73756666696369656e742062616c616e6365000000600082015250565b6000610950601d836107a8565b915061095b8261091a565b602082019050919050565b6000602082019050818103600083015261097f81610943565b9050919050565b600081905092915050565b50565b60006109a1600083610986565b91506109ac82610991565b600082019050919050565b60006109c282610994565b9150819050919050565b7f416464726573733a20756e61626c6520746f2073656e642076616c75652c207260008201527f6563697069656e74206d61792068617665207265766572746564000000000000602082015250565b6000610a28603a836107a8565b9150610a33826109cc565b604082019050919050565b60006020820190508181036000830152610a5781610a1b565b905091905056fea2646970667358221220615cfee549c14d6cc44f5650a219cb79ee6e4e10d5bda4aeb19b6c34868022fc64736f6c63430008110033",
  "immutableReferences": {
    "227": [
      {
        "length": 32,
        "start": 1309
      },
      {
        "length": 32,
        "start": 3649
      },
      {
        "length": 32,
        "start": 4296
      }
    ]
  },
  "source": "// SPDX-License-Identifier: MIT\r\npragma solidity >=0.8.17;\r\n\r\nimport \"@openzeppelin/contracts/access/Ownable.sol\";\r\nimport \"@openzeppelin/contracts/security/Pausable.sol\";\r\nimport \"@openzeppelin/contracts/security/PullPayment.sol\";\r\n\r\ncontract FlightInsureData is Ownable, Pausable, PullPayment {\r\n    address[] private airlines;\r\n    address private appContract;\r\n    mapping(address => bool) private funded;\r\n    mapping(address => bool) private registered;\r\n\r\n    struct Insurance {\r\n        uint256 amount;\r\n        bool credited;\r\n    }\r\n\r\n    mapping(bytes32 => address[]) private insurees;\r\n    mapping(bytes32 => mapping(address => Insurance)) private insurances;\r\n\r\n    function hasFunded(address airline) external view returns (bool) {\r\n        return funded[airline];\r\n    }\r\n\r\n    function getInsurees(\r\n        address airline,\r\n        string calldata flight,\r\n        uint256 timestamp\r\n    ) external view returns (address[] memory) {\r\n        bytes32 flightKey = getFlightKey(airline, flight, timestamp);\r\n        return insurees[flightKey];\r\n    }\r\n\r\n    function getInsuranceAmount(\r\n        address airline,\r\n        string calldata flight,\r\n        uint256 timestamp,\r\n        address insuree\r\n    ) external view returns (uint256) {\r\n        bytes32 flightKey = getFlightKey(airline, flight, timestamp);\r\n        return insurances[flightKey][insuree].amount;\r\n    }\r\n\r\n    function setApp(address _appContract) external onlyOwner {\r\n        appContract = _appContract;\r\n    }\r\n\r\n    function isRegistered(address airline) public view returns (bool) {\r\n        return registered[airline];\r\n    }\r\n\r\n    function pause() external onlyOwner {\r\n        _pause();\r\n    }\r\n\r\n    function unpause() external onlyOwner {\r\n        _unpause();\r\n    }\r\n\r\n    modifier onlyApp() {\r\n        require(msg.sender == appContract, \"Not authorised\");\r\n        _;\r\n    }\r\n\r\n    modifier onlyAppOrOwner() {\r\n        require(\r\n            msg.sender == appContract || msg.sender == owner(),\r\n            \"Not authorised\"\r\n        );\r\n        _;\r\n    }\r\n\r\n    function registerAirline(address airline)\r\n        external\r\n        whenNotPaused\r\n        onlyAppOrOwner\r\n    {\r\n        require(!isRegistered(airline), \"Airline already registered\");\r\n        airlines.push(airline);\r\n        registered[airline] = true;\r\n    }\r\n\r\n    function getAirlineCount() external view returns (uint256) {\r\n        return airlines.length;\r\n    }\r\n\r\n    function buyInsurance(\r\n        address airline,\r\n        string calldata flight,\r\n        uint256 timestamp,\r\n        address insuree,\r\n        uint256 amount\r\n    ) external whenNotPaused onlyApp {\r\n        bytes32 flightKey = getFlightKey(airline, flight, timestamp);\r\n        insurees[flightKey].push(insuree);\r\n        Insurance storage insurance = insurances[flightKey][insuree];\r\n        insurance.amount = amount;\r\n        insurance.credited = false;\r\n    }\r\n\r\n    function creditInsuree(\r\n        address airline,\r\n        string calldata flight,\r\n        uint256 timestamp,\r\n        address insuree,\r\n        uint256 amount\r\n    ) external onlyApp whenNotPaused {\r\n        bytes32 flightKey = getFlightKey(airline, flight, timestamp);\r\n        require(!insurances[flightKey][insuree].credited, \"Already Credited\");\r\n        insurances[flightKey][insuree].credited = true;\r\n        _asyncTransfer(insuree, amount);\r\n    }\r\n\r\n    function withdraw(address insuree) external onlyApp whenNotPaused {\r\n        withdrawPayments(payable(insuree));\r\n    }\r\n\r\n    function getFlightKey(\r\n        address airline,\r\n        string calldata flight,\r\n        uint256 timestamp\r\n    ) internal pure returns (bytes32) {\r\n        return keccak256(abi.encodePacked(airline, flight, timestamp));\r\n    }\r\n\r\n    function fund(address airline) external payable {\r\n        require(isRegistered(airline), \"Need to register first\");\r\n        funded[airline] = true;\r\n    }\r\n\r\n    function testingPause() external view whenNotPaused {}\r\n\r\n    receive() external payable {}\r\n}\r\n",
  "sourcePath": "C:\\Users\\skar\\code\\FlightInsure\\contracts\\FlightInsureData.sol",
  "compiler": {
    "name": "solc",
    "version": "0.8.17+commit.8df45f5f.Emscripten.clang"
  },
  "schemaVersion": "3.4.11",
  "updatedAt": "2023-01-04T08:10:19.914Z",
  "networkType": "ethereum",
  "devdoc": {
    "kind": "dev",
    "methods": {
      "owner()": {
        "details": "Returns the address of the current owner."
      },
      "paused()": {
        "details": "Returns true if the contract is paused, and false otherwise."
      },
      "payments(address)": {
        "details": "Returns the payments owed to an address.",
        "params": {
          "dest": "The creditor's address."
        }
      },
      "renounceOwnership()": {
        "details": "Leaves the contract without owner. It will not be possible to call `onlyOwner` functions anymore. Can only be called by the current owner. NOTE: Renouncing ownership will leave the contract without an owner, thereby removing any functionality that is only available to the owner."
      },
      "transferOwnership(address)": {
        "details": "Transfers ownership of the contract to a new account (`newOwner`). Can only be called by the current owner."
      },
      "withdrawPayments(address)": {
        "details": "Withdraw accumulated payments, forwarding all gas to the recipient. Note that _any_ account can call this function, not just the `payee`. This means that contracts unaware of the `PullPayment` protocol can still receive funds this way, by having a separate account call {withdrawPayments}. WARNING: Forwarding all gas opens the door to reentrancy vulnerabilities. Make sure you trust the recipient, or are either following the checks-effects-interactions pattern or using {ReentrancyGuard}.",
        "params": {
          "payee": "Whose payments will be withdrawn. Causes the `escrow` to emit a {Withdrawn} event."
        }
      }
    },
    "version": 1
  },
  "userdoc": {
    "kind": "user",
    "methods": {},
    "version": 1
  }
}