{
  "contractName": "FlightInsureApp",
  "abi": [
    {
      "inputs": [
        {
          "internalType": "address",
          "name": "_dataContract",
          "type": "address"
        }
      ],
      "stateMutability": "nonpayable",
      "type": "constructor"
    },
    {
      "anonymous": false,
      "inputs": [
        {
          "indexed": false,
          "internalType": "address",
          "name": "airline",
          "type": "address"
        },
        {
          "indexed": false,
          "internalType": "string",
          "name": "flight",
          "type": "string"
        },
        {
          "indexed": false,
          "internalType": "uint256",
          "name": "timestamp",
          "type": "uint256"
        },
        {
          "indexed": false,
          "internalType": "uint8",
          "name": "status",
          "type": "uint8"
        }
      ],
      "name": "FlightStatusInfo",
      "type": "event"
    },
    {
      "anonymous": false,
      "inputs": [
        {
          "indexed": false,
          "internalType": "address",
          "name": "airline",
          "type": "address"
        },
        {
          "indexed": false,
          "internalType": "string",
          "name": "flight",
          "type": "string"
        },
        {
          "indexed": false,
          "internalType": "uint256",
          "name": "timestamp",
          "type": "uint256"
        },
        {
          "indexed": false,
          "internalType": "uint8",
          "name": "status",
          "type": "uint8"
        }
      ],
      "name": "OracleReport",
      "type": "event"
    },
    {
      "anonymous": false,
      "inputs": [
        {
          "indexed": false,
          "internalType": "uint8",
          "name": "index",
          "type": "uint8"
        },
        {
          "indexed": false,
          "internalType": "address",
          "name": "airline",
          "type": "address"
        },
        {
          "indexed": false,
          "internalType": "string",
          "name": "flight",
          "type": "string"
        },
        {
          "indexed": false,
          "internalType": "uint256",
          "name": "timestamp",
          "type": "uint256"
        }
      ],
      "name": "OracleRequest",
      "type": "event"
    },
    {
      "anonymous": false,
      "inputs": [
        {
          "indexed": true,
          "internalType": "address",
          "name": "previousOwner",
          "type": "address"
        },
        {
          "indexed": true,
          "internalType": "address",
          "name": "newOwner",
          "type": "address"
        }
      ],
      "name": "OwnershipTransferred",
      "type": "event"
    },
    {
      "anonymous": false,
      "inputs": [
        {
          "indexed": false,
          "internalType": "address",
          "name": "account",
          "type": "address"
        }
      ],
      "name": "Paused",
      "type": "event"
    },
    {
      "anonymous": false,
      "inputs": [
        {
          "indexed": false,
          "internalType": "address",
          "name": "account",
          "type": "address"
        }
      ],
      "name": "Unpaused",
      "type": "event"
    },
    {
      "inputs": [],
      "name": "REGISTRATION_FEE",
      "outputs": [
        {
          "internalType": "uint256",
          "name": "",
          "type": "uint256"
        }
      ],
      "stateMutability": "view",
      "type": "function",
      "constant": true
    },
    {
      "inputs": [],
      "name": "owner",
      "outputs": [
        {
          "internalType": "address",
          "name": "",
          "type": "address"
        }
      ],
      "stateMutability": "view",
      "type": "function",
      "constant": true
    },
    {
      "inputs": [],
      "name": "paused",
      "outputs": [
        {
          "internalType": "bool",
          "name": "",
          "type": "bool"
        }
      ],
      "stateMutability": "view",
      "type": "function",
      "constant": true
    },
    {
      "inputs": [],
      "name": "renounceOwnership",
      "outputs": [],
      "stateMutability": "nonpayable",
      "type": "function"
    },
    {
      "inputs": [
        {
          "internalType": "address",
          "name": "newOwner",
          "type": "address"
        }
      ],
      "name": "transferOwnership",
      "outputs": [],
      "stateMutability": "nonpayable",
      "type": "function"
    },
    {
      "inputs": [],
      "name": "pause",
      "outputs": [],
      "stateMutability": "nonpayable",
      "type": "function"
    },
    {
      "inputs": [],
      "name": "unpause",
      "outputs": [],
      "stateMutability": "nonpayable",
      "type": "function"
    },
    {
      "inputs": [
        {
          "internalType": "uint256",
          "name": "_max",
          "type": "uint256"
        }
      ],
      "name": "updateMaxInsuredamount",
      "outputs": [],
      "stateMutability": "nonpayable",
      "type": "function"
    },
    {
      "inputs": [
        {
          "internalType": "uint256",
          "name": "_fund",
          "type": "uint256"
        }
      ],
      "name": "updateFundRequired",
      "outputs": [],
      "stateMutability": "nonpayable",
      "type": "function"
    },
    {
      "inputs": [
        {
          "internalType": "address",
          "name": "airline",
          "type": "address"
        }
      ],
      "name": "registerAirline",
      "outputs": [],
      "stateMutability": "nonpayable",
      "type": "function"
    },
    {
      "inputs": [],
      "name": "fund",
      "outputs": [],
      "stateMutability": "payable",
      "type": "function",
      "payable": true
    },
    {
      "inputs": [
        {
          "internalType": "address",
          "name": "airline",
          "type": "address"
        },
        {
          "internalType": "string",
          "name": "flight",
          "type": "string"
        },
        {
          "internalType": "uint256",
          "name": "timestamp",
          "type": "uint256"
        }
      ],
      "name": "buyInsurance",
      "outputs": [],
      "stateMutability": "payable",
      "type": "function",
      "payable": true
    },
    {
      "inputs": [],
      "name": "withdraw",
      "outputs": [],
      "stateMutability": "nonpayable",
      "type": "function"
    },
    {
      "inputs": [
        {
          "internalType": "address",
          "name": "airline",
          "type": "address"
        },
        {
          "internalType": "string",
          "name": "flight",
          "type": "string"
        },
        {
          "internalType": "uint256",
          "name": "timestamp",
          "type": "uint256"
        }
      ],
      "name": "fetchFlightStatus",
      "outputs": [],
      "stateMutability": "nonpayable",
      "type": "function"
    },
    {
      "inputs": [],
      "name": "registerOracle",
      "outputs": [],
      "stateMutability": "payable",
      "type": "function",
      "payable": true
    },
    {
      "inputs": [],
      "name": "getMyIndexes",
      "outputs": [
        {
          "internalType": "uint8[3]",
          "name": "",
          "type": "uint8[3]"
        }
      ],
      "stateMutability": "view",
      "type": "function",
      "constant": true
    },
    {
      "inputs": [
        {
          "internalType": "uint8",
          "name": "index",
          "type": "uint8"
        },
        {
          "internalType": "address",
          "name": "airline",
          "type": "address"
        },
        {
          "internalType": "string",
          "name": "flight",
          "type": "string"
        },
        {
          "internalType": "uint256",
          "name": "timestamp",
          "type": "uint256"
        },
        {
          "internalType": "uint8",
          "name": "statusCode",
          "type": "uint8"
        }
      ],
      "name": "submitOracleResponse",
      "outputs": [],
      "stateMutability": "nonpayable",
      "type": "function"
    }
  ],
  "bytecode": "0x6080604052670de0b6b3a7640000600255678ac7230489e8000060035560006006553480156200002e57600080fd5b506040516200372a3803806200372a83398181016040528101906200005491906200020c565b6200007462000068620000d660201b60201c565b620000de60201b60201c565b60008060146101000a81548160ff02191690831515021790555080600160006101000a81548173ffffffffffffffffffffffffffffffffffffffff021916908373ffffffffffffffffffffffffffffffffffffffff160217905550506200023e565b600033905090565b60008060009054906101000a900473ffffffffffffffffffffffffffffffffffffffff169050816000806101000a81548173ffffffffffffffffffffffffffffffffffffffff021916908373ffffffffffffffffffffffffffffffffffffffff1602179055508173ffffffffffffffffffffffffffffffffffffffff168173ffffffffffffffffffffffffffffffffffffffff167f8be0079c531659141344cd1fd0a4f28419497f9722a3daafe3b4186f6b6457e060405160405180910390a35050565b600080fd5b600073ffffffffffffffffffffffffffffffffffffffff82169050919050565b6000620001d482620001a7565b9050919050565b620001e681620001c7565b8114620001f257600080fd5b50565b6000815190506200020681620001db565b92915050565b600060208284031215620002255762000224620001a2565b5b60006200023584828501620001f5565b91505092915050565b6134dc806200024e6000396000f3fe6080604052600436106100fe5760003560e01c806381a0d00511610095578063b60d428811610064578063b60d428814610283578063bdfd98771461028d578063c10f2700146102b6578063f2fde38b146102df578063f83f11c014610308576100fe565b806381a0d005146101ef5780638456cb59146102185780638da5cb5b1461022f578063ab2934311461025a576100fe565b80635c975abb116100d15780635c975abb146101575780635f1cc0e61461018257806364b4f751146101ad578063715018a6146101d8576100fe565b80632f6721d014610103578063339d25901461011f5780633ccfd60b146101295780633f4ba83a14610140575b600080fd5b61011d6004803603810190610118919061216d565b610331565b005b61012761057f565b005b34801561013557600080fd5b5061013e61066c565b005b34801561014c57600080fd5b506101556106fb565b005b34801561016357600080fd5b5061016c61070d565b60405161017991906121fc565b60405180910390f35b34801561018e57600080fd5b50610197610723565b6040516101a491906122cf565b60405180910390f35b3480156101b957600080fd5b506101c2610863565b6040516101cf91906122f9565b60405180910390f35b3480156101e457600080fd5b506101ed61086f565b005b3480156101fb57600080fd5b5061021660048036038101906102119190612314565b610883565b005b34801561022457600080fd5b5061022d61089d565b005b34801561023b57600080fd5b506102446108af565b6040516102519190612350565b60405180910390f35b34801561026657600080fd5b50610281600480360381019061027c9190612314565b6108d8565b005b61028b6108f2565b005b34801561029957600080fd5b506102b460048036038101906102af919061236b565b610aa2565b005b3480156102c257600080fd5b506102dd60048036038101906102d891906123c4565b611142565b005b3480156102eb57600080fd5b506103066004803603810190610301919061236b565b611508565b005b34801561031457600080fd5b5061032f600480360381019061032a919061216d565b61158b565b005b61033961179d565b83600160009054906101000a900473ffffffffffffffffffffffffffffffffffffffff1673ffffffffffffffffffffffffffffffffffffffff166361dba32a826040518263ffffffff1660e01b81526004016103959190612350565b6020604051808303816000875af11580156103b4573d6000803e3d6000fd5b505050506040513d601f19601f820116820180604052508101906103d8919061248a565b610417576040517f08c379a000000000000000000000000000000000000000000000000000000000815260040161040e9061253a565b60405180910390fd5b6000341161045a576040517f08c379a0000000000000000000000000000000000000000000000000000000008152600401610451906125a6565b60405180910390fd5b60025434111561049f576040517f08c379a000000000000000000000000000000000000000000000000000000000815260040161049690612612565b60405180910390fd5b4282116104e1576040517f08c379a00000000000000000000000000000000000000000000000000000000081526004016104d8906126a4565b60405180910390fd5b600160009054906101000a900473ffffffffffffffffffffffffffffffffffffffff1673ffffffffffffffffffffffffffffffffffffffff1663869d7b768686868633346040518763ffffffff1660e01b815260040161054696959493929190612711565b600060405180830381600087803b15801561056057600080fd5b505af1158015610574573d6000803e3d6000fd5b505050505050505050565b670de0b6b3a76400003410156105ca576040517f08c379a00000000000000000000000000000000000000000000000000000000081526004016105c1906127b9565b60405180910390fd5b60006105d5336117e7565b9050604051806040016040528060011515815260200182815250600760003373ffffffffffffffffffffffffffffffffffffffff1673ffffffffffffffffffffffffffffffffffffffff16815260200190815260200160002060008201518160000160006101000a81548160ff021916908315150217905550602082015181600101906003610665929190611f87565b5090505050565b600160009054906101000a900473ffffffffffffffffffffffffffffffffffffffff1673ffffffffffffffffffffffffffffffffffffffff166331b3eb94336040518263ffffffff1660e01b81526004016106c791906127fa565b600060405180830381600087803b1580156106e157600080fd5b505af11580156106f5573d6000803e3d6000fd5b50505050565b6107036119cd565b61070b611a4b565b565b60008060149054906101000a900460ff16905090565b61072b612021565b600760003373ffffffffffffffffffffffffffffffffffffffff1673ffffffffffffffffffffffffffffffffffffffff16815260200190815260200160002060000160009054906101000a900460ff166107ba576040517f08c379a00000000000000000000000000000000000000000000000000000000081526004016107b190612861565b60405180910390fd5b600760003373ffffffffffffffffffffffffffffffffffffffff1673ffffffffffffffffffffffffffffffffffffffff168152602001908152602001600020600101600380602002604051908101604052809291908260038015610859576020028201916000905b82829054906101000a900460ff1660ff16815260200190600101906020826000010492830192600103820291508084116108225790505b5050505050905090565b670de0b6b3a764000081565b6108776119cd565b6108816000611aad565b565b61088b6119cd565b61089361179d565b8060038190555050565b6108a56119cd565b6108ad611b71565b565b60008060009054906101000a900473ffffffffffffffffffffffffffffffffffffffff16905090565b6108e06119cd565b6108e861179d565b8060028190555050565b600160009054906101000a900473ffffffffffffffffffffffffffffffffffffffff1673ffffffffffffffffffffffffffffffffffffffff1663c3c5a547336040518263ffffffff1660e01b815260040161094d9190612350565b602060405180830381865afa15801561096a573d6000803e3d6000fd5b505050506040513d601f19601f8201168201806040525081019061098e919061248a565b6109cd576040517f08c379a00000000000000000000000000000000000000000000000000000000081526004016109c4906128f3565b60405180910390fd5b600354341015610a12576040517f08c379a0000000000000000000000000000000000000000000000000000000008152600401610a099061295f565b60405180910390fd5b600160009054906101000a900473ffffffffffffffffffffffffffffffffffffffff1673ffffffffffffffffffffffffffffffffffffffff16632302440834336040518363ffffffff1660e01b8152600401610a6e9190612350565b6000604051808303818588803b158015610a8757600080fd5b505af1158015610a9b573d6000803e3d6000fd5b5050505050565b610aaa61179d565b33600160009054906101000a900473ffffffffffffffffffffffffffffffffffffffff1673ffffffffffffffffffffffffffffffffffffffff166361dba32a826040518263ffffffff1660e01b8152600401610b069190612350565b6020604051808303816000875af1158015610b25573d6000803e3d6000fd5b505050506040513d601f19601f82011682018060405250810190610b49919061248a565b610b88576040517f08c379a0000000000000000000000000000000000000000000000000000000008152600401610b7f9061253a565b60405180910390fd5b6000339050600160009054906101000a900473ffffffffffffffffffffffffffffffffffffffff1673ffffffffffffffffffffffffffffffffffffffff1663c3c5a547846040518263ffffffff1660e01b8152600401610be89190612350565b602060405180830381865afa158015610c05573d6000803e3d6000fd5b505050506040513d601f19601f82011682018060405250810190610c29919061248a565b15610c69576040517f08c379a0000000000000000000000000000000000000000000000000000000008152600401610c60906129cb565b60405180910390fd5b600160009054906101000a900473ffffffffffffffffffffffffffffffffffffffff1673ffffffffffffffffffffffffffffffffffffffff1663c3c5a547826040518263ffffffff1660e01b8152600401610cc49190612350565b602060405180830381865afa158015610ce1573d6000803e3d6000fd5b505050506040513d601f19601f82011682018060405250810190610d05919061248a565b610d44576040517f08c379a0000000000000000000000000000000000000000000000000000000008152600401610d3b90612a37565b60405180910390fd5b6000600160009054906101000a900473ffffffffffffffffffffffffffffffffffffffff1673ffffffffffffffffffffffffffffffffffffffff16637f9e18086040518163ffffffff1660e01b8152600401602060405180830381865afa158015610db3573d6000803e3d6000fd5b505050506040513d601f19601f82011682018060405250810190610dd79190612a6c565b90506004811015610e7457600160009054906101000a900473ffffffffffffffffffffffffffffffffffffffff1673ffffffffffffffffffffffffffffffffffffffff1663bdfd9877856040518263ffffffff1660e01b8152600401610e3d9190612350565b600060405180830381600087803b158015610e5757600080fd5b505af1158015610e6b573d6000803e3d6000fd5b5050505061113c565b6000600460008673ffffffffffffffffffffffffffffffffffffffff1673ffffffffffffffffffffffffffffffffffffffff168152602001908152602001600020905060005b8180549050811015610f84578373ffffffffffffffffffffffffffffffffffffffff16828281548110610ef057610eef612a99565b5b9060005260206000200160009054906101000a900473ffffffffffffffffffffffffffffffffffffffff1673ffffffffffffffffffffffffffffffffffffffff1603610f71576040517f08c379a0000000000000000000000000000000000000000000000000000000008152600401610f6890612b14565b60405180910390fd5b8080610f7c90612b63565b915050610eba565b50600060018280549050610f989190612bab565b90506000600160009054906101000a900473ffffffffffffffffffffffffffffffffffffffff1673ffffffffffffffffffffffffffffffffffffffff16637f9e18086040518163ffffffff1660e01b8152600401602060405180830381865afa158015611009573d6000803e3d6000fd5b505050506040513d601f19601f8201168201806040525081019061102d9190612a6c565b905060028161103c9190612c0e565b8211156110d557600160009054906101000a900473ffffffffffffffffffffffffffffffffffffffff1673ffffffffffffffffffffffffffffffffffffffff1663bdfd9877886040518263ffffffff1660e01b815260040161109e9190612350565b600060405180830381600087803b1580156110b857600080fd5b505af11580156110cc573d6000803e3d6000fd5b50505050611138565b82859080600181540180825580915050600190039060005260206000200160009091909190916101000a81548173ffffffffffffffffffffffffffffffffffffffff021916908373ffffffffffffffffffffffffffffffffffffffff1602179055505b5050505b50505050565b8560ff16600760003373ffffffffffffffffffffffffffffffffffffffff1673ffffffffffffffffffffffffffffffffffffffff16815260200190815260200160002060010160006003811061119b5761119a612a99565b5b602091828204019190069054906101000a900460ff1660ff16148061122f57508560ff16600760003373ffffffffffffffffffffffffffffffffffffffff1673ffffffffffffffffffffffffffffffffffffffff16815260200190815260200160002060010160016003811061121457611213612a99565b5b602091828204019190069054906101000a900460ff1660ff16145b806112a957508560ff16600760003373ffffffffffffffffffffffffffffffffffffffff1673ffffffffffffffffffffffffffffffffffffffff16815260200190815260200160002060010160026003811061128e5761128d612a99565b5b602091828204019190069054906101000a900460ff1660ff16145b6112e8576040517f08c379a00000000000000000000000000000000000000000000000000000000081526004016112df90612cb1565b60405180910390fd5b60008686868686604051602001611303959493929190612da0565b6040516020818303038152906040528051906020012090506008600082815260200190815260200160002060000160149054906101000a900460ff1661137e576040517f08c379a000000000000000000000000000000000000000000000000000000000815260040161137590612e5e565b60405180910390fd5b6008600082815260200190815260200160002060010160008360ff1660ff168152602001908152602001600020339080600181540180825580915050600190039060005260206000200160009091909190916101000a81548173ffffffffffffffffffffffffffffffffffffffff021916908373ffffffffffffffffffffffffffffffffffffffff1602179055507f43c853095c2752648493c88b4baac4d580d2594ffb00c6f1d4242d844514f7838686868686604051611443959493929190612e8d565b60405180910390a160036008600083815260200190815260200160002060010160008460ff1660ff16815260200190815260200160002080549050106114ff577fe23f5229de535c091e3b7bec2665f5d698192d3b31393066e8987b7a05076b6c86868686866040516114ba959493929190612e8d565b60405180910390a160006008600083815260200190815260200160002060000160146101000a81548160ff0219169083151502179055506114fe8686868686611bd4565b5b50505050505050565b6115106119cd565b600073ffffffffffffffffffffffffffffffffffffffff168173ffffffffffffffffffffffffffffffffffffffff160361157f576040517f08c379a000000000000000000000000000000000000000000000000000000000815260040161157690612f4d565b60405180910390fd5b61158881611aad565b50565b4281106115cd576040517f08c379a00000000000000000000000000000000000000000000000000000000081526004016115c490612fdf565b60405180910390fd5b6000848484846040516020016115e69493929190612fff565b604051602081830303815290604052805190602001209050600060ff166005600083815260200190815260200160002060009054906101000a900460ff1660ff1614611690577fe23f5229de535c091e3b7bec2665f5d698192d3b31393066e8987b7a05076b6c858585856005600087815260200190815260200160002060009054906101000a900460ff16604051611683959493929190612e8d565b60405180910390a1611796565b600061169b33611c54565b9050600081878787876040516020016116b8959493929190612da0565b604051602081830303815290604052805190602001209050336008600083815260200190815260200160002060000160006101000a81548173ffffffffffffffffffffffffffffffffffffffff021916908373ffffffffffffffffffffffffffffffffffffffff16021790555060016008600083815260200190815260200160002060000160146101000a81548160ff0219169083151502179055507f3ed01f2c3fc24c6b329d931e35b03e390d23497d22b3f90e15b600343e93df11828888888860405161178b95949392919061303a565b60405180910390a150505b5050505050565b6117a561070d565b156117e5576040517f08c379a00000000000000000000000000000000000000000000000000000000081526004016117dc906130d4565b60405180910390fd5b565b6117ef612021565b6117f7612021565b61180083611c54565b8160006003811061181457611813612a99565b5b602002019060ff16908160ff16815250508060006003811061183957611838612a99565b5b60200201518160016003811061185257611851612a99565b5b602002019060ff16908160ff16815250505b8060006003811061187857611877612a99565b5b602002015160ff168160016003811061189457611893612a99565b5b602002015160ff16036118d4576118aa83611c54565b816001600381106118be576118bd612a99565b5b602002019060ff16908160ff1681525050611864565b806001600381106118e8576118e7612a99565b5b60200201518160026003811061190157611900612a99565b5b602002019060ff16908160ff16815250505b8060006003811061192757611926612a99565b5b602002015160ff168160026003811061194357611942612a99565b5b602002015160ff16148061198c57508060016003811061196657611965612a99565b5b602002015160ff168160026003811061198257611981612a99565b5b602002015160ff16145b156119c45761199a83611c54565b816002600381106119ae576119ad612a99565b5b602002019060ff16908160ff1681525050611913565b80915050919050565b6119d5611cd0565b73ffffffffffffffffffffffffffffffffffffffff166119f36108af565b73ffffffffffffffffffffffffffffffffffffffff1614611a49576040517f08c379a0000000000000000000000000000000000000000000000000000000008152600401611a4090613140565b60405180910390fd5b565b611a53611cd8565b60008060146101000a81548160ff0219169083151502179055507f5db9ee0a495bf2e6ff9c91a7834c1ba4fdd244a5e8aa4e537bd38aeae4b073aa611a96611cd0565b604051611aa39190612350565b60405180910390a1565b60008060009054906101000a900473ffffffffffffffffffffffffffffffffffffffff169050816000806101000a81548173ffffffffffffffffffffffffffffffffffffffff021916908373ffffffffffffffffffffffffffffffffffffffff1602179055508173ffffffffffffffffffffffffffffffffffffffff168173ffffffffffffffffffffffffffffffffffffffff167f8be0079c531659141344cd1fd0a4f28419497f9722a3daafe3b4186f6b6457e060405160405180910390a35050565b611b7961179d565b6001600060146101000a81548160ff0219169083151502179055507f62e78cea01bee320cd4e420270b5ea74000d11b0c9f74754ebdbfc544b05a258611bbd611cd0565b604051611bca9190612350565b60405180910390a1565b600085858585604051602001611bed9493929190612fff565b604051602081830303815290604052805190602001209050816005600083815260200190815260200160002060006101000a81548160ff021916908360ff160217905550601460ff168260ff1603611c4c57611c4b86868686611d21565b5b505050505050565b600080600a905060008160ff16428560066000815480929190611c7690612b63565b91905055604051602001611c8c93929190613160565b6040516020818303038152906040528051906020012060001c611caf919061319d565b90506103e86006541115611cc65760006006819055505b8092505050919050565b600033905090565b611ce061070d565b611d1f576040517f08c379a0000000000000000000000000000000000000000000000000000000008152600401611d169061321a565b60405180910390fd5b565b611d2961179d565b6000600160009054906101000a900473ffffffffffffffffffffffffffffffffffffffff1673ffffffffffffffffffffffffffffffffffffffff1663b31b4f4f868686866040518563ffffffff1660e01b8152600401611d8c949392919061323a565b600060405180830381865afa158015611da9573d6000803e3d6000fd5b505050506040513d6000823e3d601f19601f82011682018060405250810190611dd291906133cd565b905060005b8151811015611f7f576000600160009054906101000a900473ffffffffffffffffffffffffffffffffffffffff1673ffffffffffffffffffffffffffffffffffffffff166399e9718d88888888888881518110611e3757611e36612a99565b5b60200260200101516040518663ffffffff1660e01b8152600401611e5f959493929190613416565b602060405180830381865afa158015611e7c573d6000803e3d6000fd5b505050506040513d601f19601f82011682018060405250810190611ea09190612a6c565b9050600160009054906101000a900473ffffffffffffffffffffffffffffffffffffffff1673ffffffffffffffffffffffffffffffffffffffff16635e40b00488888888888881518110611ef757611ef6612a99565b5b60200260200101516002600389611f0e9190613464565b611f189190612c0e565b6040518763ffffffff1660e01b8152600401611f3996959493929190612711565b600060405180830381600087803b158015611f5357600080fd5b505af1158015611f67573d6000803e3d6000fd5b50505050508080611f7790612b63565b915050611dd7565b505050505050565b826003601f016020900481019282156120105791602002820160005b83821115611fe157835183826101000a81548160ff021916908360ff1602179055509260200192600101602081600001049283019260010302611fa3565b801561200e5782816101000a81549060ff0219169055600101602081600001049283019260010302611fe1565b505b50905061201d9190612043565b5090565b6040518060600160405280600390602082028036833780820191505090505090565b5b8082111561205c576000816000905550600101612044565b5090565b6000604051905090565b600080fd5b600080fd5b600073ffffffffffffffffffffffffffffffffffffffff82169050919050565b600061209f82612074565b9050919050565b6120af81612094565b81146120ba57600080fd5b50565b6000813590506120cc816120a6565b92915050565b600080fd5b600080fd5b600080fd5b60008083601f8401126120f7576120f66120d2565b5b8235905067ffffffffffffffff811115612114576121136120d7565b5b6020830191508360018202830111156121305761212f6120dc565b5b9250929050565b6000819050919050565b61214a81612137565b811461215557600080fd5b50565b60008135905061216781612141565b92915050565b600080600080606085870312156121875761218661206a565b5b6000612195878288016120bd565b945050602085013567ffffffffffffffff8111156121b6576121b561206f565b5b6121c2878288016120e1565b935093505060406121d587828801612158565b91505092959194509250565b60008115159050919050565b6121f6816121e1565b82525050565b600060208201905061221160008301846121ed565b92915050565b600060039050919050565b600081905092915050565b6000819050919050565b600060ff82169050919050565b61224d81612237565b82525050565b600061225f8383612244565b60208301905092915050565b6000602082019050919050565b61228181612217565b61228b8184612222565b92506122968261222d565b8060005b838110156122c75781516122ae8782612253565b96506122b98361226b565b92505060018101905061229a565b505050505050565b60006060820190506122e46000830184612278565b92915050565b6122f381612137565b82525050565b600060208201905061230e60008301846122ea565b92915050565b60006020828403121561232a5761232961206a565b5b600061233884828501612158565b91505092915050565b61234a81612094565b82525050565b60006020820190506123656000830184612341565b92915050565b6000602082840312156123815761238061206a565b5b600061238f848285016120bd565b91505092915050565b6123a181612237565b81146123ac57600080fd5b50565b6000813590506123be81612398565b92915050565b60008060008060008060a087890312156123e1576123e061206a565b5b60006123ef89828a016123af565b965050602061240089828a016120bd565b955050604087013567ffffffffffffffff8111156124215761242061206f565b5b61242d89828a016120e1565b9450945050606061244089828a01612158565b925050608061245189828a016123af565b9150509295509295509295565b612467816121e1565b811461247257600080fd5b50565b6000815190506124848161245e565b92915050565b6000602082840312156124a05761249f61206a565b5b60006124ae84828501612475565b91505092915050565b600082825260208201905092915050565b7f4169726c696e65206e6565647320746f2073656e642066756e647320746f207060008201527f6172746963697061746500000000000000000000000000000000000000000000602082015250565b6000612524602a836124b7565b915061252f826124c8565b604082019050919050565b6000602082019050818103600083015261255381612517565b9050919050565b7f4d697373696e6720696e737572616e636520616d6f756e740000000000000000600082015250565b60006125906018836124b7565b915061259b8261255a565b602082019050919050565b600060208201905081810360008301526125bf81612583565b9050919050565b7f41626f7665204d6178696d756d20496e737572616e6365204c696d6974000000600082015250565b60006125fc601d836124b7565b9150612607826125c6565b602082019050919050565b6000602082019050818103600083015261262b816125ef565b9050919050565b7f596f752063616e20696e73757265206f6e6c792066757475726520666c69676860008201527f7473000000000000000000000000000000000000000000000000000000000000602082015250565b600061268e6022836124b7565b915061269982612632565b604082019050919050565b600060208201905081810360008301526126bd81612681565b9050919050565b82818337600083830152505050565b6000601f19601f8301169050919050565b60006126f083856124b7565b93506126fd8385846126c4565b612706836126d3565b840190509392505050565b600060a0820190506127266000830189612341565b81810360208301526127398187896126e4565b905061274860408301866122ea565b6127556060830185612341565b61276260808301846122ea565b979650505050505050565b7f526567697374726174696f6e2066656520697320726571756972656400000000600082015250565b60006127a3601c836124b7565b91506127ae8261276d565b602082019050919050565b600060208201905081810360008301526127d281612796565b9050919050565b60006127e482612074565b9050919050565b6127f4816127d9565b82525050565b600060208201905061280f60008301846127eb565b92915050565b7f4e6f74207265676973746572656420617320616e206f7261636c650000000000600082015250565b600061284b601b836124b7565b915061285682612815565b602082019050919050565b6000602082019050818103600083015261287a8161283e565b9050919050565b7f596f75206e65656420746f20726567697374657220796f757273656c6620666960008201527f7273740000000000000000000000000000000000000000000000000000000000602082015250565b60006128dd6023836124b7565b91506128e882612881565b604082019050919050565b6000602082019050818103600083015261290c816128d0565b9050919050565b7f496e73756666696369656e742066756e64696e67000000000000000000000000600082015250565b60006129496014836124b7565b915061295482612913565b602082019050919050565b600060208201905081810360008301526129788161293c565b9050919050565b7f416c726561647920526567697374657265640000000000000000000000000000600082015250565b60006129b56012836124b7565b91506129c08261297f565b602082019050919050565b600060208201905081810360008301526129e4816129a8565b9050919050565b7f4e6f7420617574686f7269736564000000000000000000000000000000000000600082015250565b6000612a21600e836124b7565b9150612a2c826129eb565b602082019050919050565b60006020820190508181036000830152612a5081612a14565b9050919050565b600081519050612a6681612141565b92915050565b600060208284031215612a8257612a8161206a565b5b6000612a9084828501612a57565b91505092915050565b7f4e487b7100000000000000000000000000000000000000000000000000000000600052603260045260246000fd5b7f596f7527766520616c726561647920766f746564000000000000000000000000600082015250565b6000612afe6014836124b7565b9150612b0982612ac8565b602082019050919050565b60006020820190508181036000830152612b2d81612af1565b9050919050565b7f4e487b7100000000000000000000000000000000000000000000000000000000600052601160045260246000fd5b6000612b6e82612137565b91507fffffffffffffffffffffffffffffffffffffffffffffffffffffffffffffffff8203612ba057612b9f612b34565b5b600182019050919050565b6000612bb682612137565b9150612bc183612137565b9250828201905080821115612bd957612bd8612b34565b5b92915050565b7f4e487b7100000000000000000000000000000000000000000000000000000000600052601260045260246000fd5b6000612c1982612137565b9150612c2483612137565b925082612c3457612c33612bdf565b5b828204905092915050565b7f496e64657820646f6573206e6f74206d61746368206f7261636c65207265717560008201527f6573740000000000000000000000000000000000000000000000000000000000602082015250565b6000612c9b6023836124b7565b9150612ca682612c3f565b604082019050919050565b60006020820190508181036000830152612cca81612c8e565b9050919050565b60008160f81b9050919050565b6000612ce982612cd1565b9050919050565b612d01612cfc82612237565b612cde565b82525050565b60008160601b9050919050565b6000612d1f82612d07565b9050919050565b6000612d3182612d14565b9050919050565b612d49612d4482612094565b612d26565b82525050565b600081905092915050565b6000612d668385612d4f565b9350612d738385846126c4565b82840190509392505050565b6000819050919050565b612d9a612d9582612137565b612d7f565b82525050565b6000612dac8288612cf0565b600182019150612dbc8287612d38565b601482019150612dcd828587612d5a565b9150612dd98284612d89565b6020820191508190509695505050505050565b7f466c69676874206f722074696d657374616d7020646f206e6f74206d6174636860008201527f206f7261636c6520726571756573740000000000000000000000000000000000602082015250565b6000612e48602f836124b7565b9150612e5382612dec565b604082019050919050565b60006020820190508181036000830152612e7781612e3b565b9050919050565b612e8781612237565b82525050565b6000608082019050612ea26000830188612341565b8181036020830152612eb58186886126e4565b9050612ec460408301856122ea565b612ed16060830184612e7e565b9695505050505050565b7f4f776e61626c653a206e6577206f776e657220697320746865207a65726f206160008201527f6464726573730000000000000000000000000000000000000000000000000000602082015250565b6000612f376026836124b7565b9150612f4282612edb565b604082019050919050565b60006020820190508181036000830152612f6681612f2a565b9050919050565b7f417661696c61626c65206166746572207363686564756c65642064657061727460008201527f7572650000000000000000000000000000000000000000000000000000000000602082015250565b6000612fc96023836124b7565b9150612fd482612f6d565b604082019050919050565b60006020820190508181036000830152612ff881612fbc565b9050919050565b600061300b8287612d38565b60148201915061301c828587612d5a565b91506130288284612d89565b60208201915081905095945050505050565b600060808201905061304f6000830188612e7e565b61305c6020830187612341565b818103604083015261306f8185876126e4565b905061307e60608301846122ea565b9695505050505050565b7f5061757361626c653a2070617573656400000000000000000000000000000000600082015250565b60006130be6010836124b7565b91506130c982613088565b602082019050919050565b600060208201905081810360008301526130ed816130b1565b9050919050565b7f4f776e61626c653a2063616c6c6572206973206e6f7420746865206f776e6572600082015250565b600061312a6020836124b7565b9150613135826130f4565b602082019050919050565b600060208201905081810360008301526131598161311d565b9050919050565b600061316c8286612d89565b60208201915061317c8285612d38565b60148201915061318c8284612d89565b602082019150819050949350505050565b60006131a882612137565b91506131b383612137565b9250826131c3576131c2612bdf565b5b828206905092915050565b7f5061757361626c653a206e6f7420706175736564000000000000000000000000600082015250565b60006132046014836124b7565b915061320f826131ce565b602082019050919050565b60006020820190508181036000830152613233816131f7565b9050919050565b600060608201905061324f6000830187612341565b81810360208301526132628185876126e4565b905061327160408301846122ea565b95945050505050565b7f4e487b7100000000000000000000000000000000000000000000000000000000600052604160045260246000fd5b6132b2826126d3565b810181811067ffffffffffffffff821117156132d1576132d061327a565b5b80604052505050565b60006132e4612060565b90506132f082826132a9565b919050565b600067ffffffffffffffff8211156133105761330f61327a565b5b602082029050602081019050919050565b600081519050613330816120a6565b92915050565b6000613349613344846132f5565b6132da565b9050808382526020820190506020840283018581111561336c5761336b6120dc565b5b835b8181101561339557806133818882613321565b84526020840193505060208101905061336e565b5050509392505050565b600082601f8301126133b4576133b36120d2565b5b81516133c4848260208601613336565b91505092915050565b6000602082840312156133e3576133e261206a565b5b600082015167ffffffffffffffff8111156134015761340061206f565b5b61340d8482850161339f565b91505092915050565b600060808201905061342b6000830188612341565b818103602083015261343e8186886126e4565b905061344d60408301856122ea565b61345a6060830184612341565b9695505050505050565b600061346f82612137565b915061347a83612137565b925082820261348881612137565b9150828204841483151761349f5761349e612b34565b5b509291505056fea26469706673582212203162b19ca024ed4e7fa88429e2895c5416e8fb23d05d989ff48ef0d3e43eb55964736f6c63430008110033",
  "immutableReferences": {},
  "source": "// SPDX-License-Identifier: MIT\r\npragma solidity >=0.8.17;\r\n\r\nimport \"@openzeppelin/contracts/access/Ownable.sol\";\r\nimport \"@openzeppelin/contracts/security/Pausable.sol\";\r\n\r\nimport \"./IFlightInsureData.sol\";\r\n\r\ncontract FlightInsureApp is Ownable, Pausable {\r\n    IFlightInsureData private dataContract;\r\n    uint256 private maximumInsuredAmount = 1 ether;\r\n    uint256 private fundRequiredPerAirline = 10 ether;\r\n    mapping(address => address[]) private voters;\r\n\r\n    uint8 private constant STATUS_CODE_UNKNOWN = 0;\r\n    uint8 private constant STATUS_CODE_ON_TIME = 10;\r\n    uint8 private constant STATUS_CODE_LATE_AIRLINE = 20;\r\n    uint8 private constant STATUS_CODE_LATE_WEATHER = 30;\r\n    uint8 private constant STATUS_CODE_LATE_TECHNICAL = 40;\r\n    uint8 private constant STATUS_CODE_LATE_OTHER = 50;\r\n\r\n    constructor(address _dataContract) {\r\n        dataContract = IFlightInsureData(_dataContract);\r\n    }\r\n\r\n    modifier hasFunded(address airline) {\r\n        require(\r\n            dataContract.hasFunded(airline),\r\n            \"Airline needs to send funds to participate\"\r\n        );\r\n        _;\r\n    }\r\n\r\n    function pause() external onlyOwner {\r\n        _pause();\r\n    }\r\n\r\n    function unpause() external onlyOwner {\r\n        _unpause();\r\n    }\r\n\r\n    function updateMaxInsuredamount(uint256 _max)\r\n        external\r\n        onlyOwner\r\n        whenNotPaused\r\n    {\r\n        maximumInsuredAmount = _max;\r\n    }\r\n\r\n    function updateFundRequired(uint256 _fund)\r\n        external\r\n        onlyOwner\r\n        whenNotPaused\r\n    {\r\n        fundRequiredPerAirline = _fund;\r\n    }\r\n\r\n    function registerAirline(address airline)\r\n        external\r\n        whenNotPaused\r\n        hasFunded(msg.sender)\r\n    {\r\n        address sponsoringAirline = msg.sender;\r\n        require(!dataContract.isRegistered(airline), \"Already Registered\");\r\n        require(dataContract.isRegistered(sponsoringAirline), \"Not authorised\");\r\n        uint256 count = dataContract.getAirlineCount();\r\n        if (count < 4) {\r\n            dataContract.registerAirline(airline);\r\n        } else {\r\n            address[] storage supporters = voters[airline];\r\n            for (uint256 i = 0; i < supporters.length; i++) {\r\n                if (supporters[i] == sponsoringAirline) {\r\n                    revert(\"You've already voted\");\r\n                }\r\n            }\r\n            uint256 numSupporters = supporters.length + 1;\r\n            uint256 totalAirlineCount = dataContract.getAirlineCount();\r\n            if (numSupporters > (totalAirlineCount / 2)) {\r\n                dataContract.registerAirline(airline);\r\n            } else {\r\n                supporters.push(sponsoringAirline);\r\n            }\r\n        }\r\n    }\r\n\r\n    function fund() external payable {\r\n        require(\r\n            dataContract.isRegistered(msg.sender),\r\n            \"You need to register yourself first\"\r\n        );\r\n        require(msg.value >= fundRequiredPerAirline, \"Insufficient funding\");\r\n        dataContract.fund{value: msg.value}(msg.sender);\r\n    }\r\n\r\n    function buyInsurance(\r\n        address airline,\r\n        string calldata flight,\r\n        uint256 timestamp\r\n    ) external payable whenNotPaused hasFunded(airline) {\r\n        require(msg.value > 0, \"Missing insurance amount\");\r\n        require(\r\n            msg.value <= maximumInsuredAmount,\r\n            \"Above Maximum Insurance Limit\"\r\n        );\r\n        require(\r\n            timestamp > block.timestamp,\r\n            \"You can insure only future flights\"\r\n        );\r\n\r\n        dataContract.buyInsurance(\r\n            airline,\r\n            flight,\r\n            timestamp,\r\n            msg.sender,\r\n            msg.value\r\n        );\r\n    }\r\n\r\n    function creditInsurees(\r\n        address airline,\r\n        string calldata flight,\r\n        uint256 timestamp\r\n    ) internal whenNotPaused {\r\n        address[] memory insurees = dataContract.getInsurees(\r\n            airline,\r\n            flight,\r\n            timestamp\r\n        );\r\n\r\n        for (uint256 i = 0; i < insurees.length; i++) {\r\n            uint256 amount = dataContract.getInsuranceAmount(\r\n                airline,\r\n                flight,\r\n                timestamp,\r\n                insurees[i]\r\n            );\r\n            dataContract.creditInsuree(\r\n                airline,\r\n                flight,\r\n                timestamp,\r\n                insurees[i],\r\n                (amount * 3) / 2\r\n            );\r\n        }\r\n    }\r\n\r\n    function withdraw() external {\r\n        dataContract.withdrawPayments(payable(msg.sender));\r\n    }\r\n\r\n    mapping(bytes32 => uint8) finalFlightStatus;\r\n\r\n    function processFlightStatus(\r\n        address airline,\r\n        string calldata flight,\r\n        uint256 timestamp,\r\n        uint8 statusCode\r\n    ) internal {\r\n        bytes32 key = keccak256(abi.encodePacked(airline, flight, timestamp));\r\n        finalFlightStatus[key] = statusCode;\r\n        if (statusCode == STATUS_CODE_LATE_AIRLINE) {\r\n            creditInsurees(airline, flight, timestamp);\r\n        }\r\n    }\r\n\r\n    function fetchFlightStatus(\r\n        address airline,\r\n        string calldata flight,\r\n        uint256 timestamp\r\n    ) external {\r\n        require(\r\n            timestamp < block.timestamp,\r\n            \"Available after scheduled departure\"\r\n        );\r\n        bytes32 flightkey = keccak256(\r\n            abi.encodePacked(airline, flight, timestamp)\r\n        );\r\n        if (finalFlightStatus[flightkey] != STATUS_CODE_UNKNOWN) {\r\n            emit FlightStatusInfo(\r\n                airline,\r\n                flight,\r\n                timestamp,\r\n                finalFlightStatus[flightkey]\r\n            );\r\n        } else {\r\n            uint8 idx = getRandomIndex(msg.sender);\r\n            bytes32 key = keccak256(\r\n                abi.encodePacked(idx, airline, flight, timestamp)\r\n            );\r\n            oracleResponses[key].requester = msg.sender;\r\n            oracleResponses[key].isOpen = true;\r\n            emit OracleRequest(idx, airline, flight, timestamp);\r\n        }\r\n    }\r\n\r\n    /// Oracle Code\r\n\r\n    // Incremented to add pseudo-randomness at various points\r\n    uint256 private nonce = 0;\r\n\r\n    // Fee to be paid when registering oracle\r\n    uint256 public constant REGISTRATION_FEE = 1 ether;\r\n\r\n    // Number of oracles that must respond for valid status\r\n    uint256 private constant MIN_RESPONSES = 3;\r\n\r\n    struct Oracle {\r\n        bool isRegistered;\r\n        uint8[3] indexes;\r\n    }\r\n\r\n    // Track all registered oracles\r\n    mapping(address => Oracle) private oracles;\r\n\r\n    // Model for responses from oracles\r\n    struct ResponseInfo {\r\n        address requester; // Account that requested status\r\n        bool isOpen; // If open, oracle responses are accepted\r\n        mapping(uint8 => address[]) responses; // Mapping key is the status code reported\r\n        // This lets us group responses and identify\r\n        // the response that majority of the oracles\r\n    }\r\n\r\n    // Track all oracle responses\r\n    // Key = hash(index, flight, timestamp)\r\n    mapping(bytes32 => ResponseInfo) private oracleResponses;\r\n\r\n    // Event fired each time an oracle submits a response\r\n    event FlightStatusInfo(\r\n        address airline,\r\n        string flight,\r\n        uint256 timestamp,\r\n        uint8 status\r\n    );\r\n\r\n    event OracleReport(\r\n        address airline,\r\n        string flight,\r\n        uint256 timestamp,\r\n        uint8 status\r\n    );\r\n\r\n    // Event fired when flight status request is submitted\r\n    // Oracles track this and if they have a matching index\r\n    // they fetch data and submit a response\r\n    event OracleRequest(\r\n        uint8 index,\r\n        address airline,\r\n        string flight,\r\n        uint256 timestamp\r\n    );\r\n\r\n    // Register an oracle with the contract\r\n    function registerOracle() external payable {\r\n        // Require registration fee\r\n        require(msg.value >= REGISTRATION_FEE, \"Registration fee is required\");\r\n\r\n        uint8[3] memory indexes = generateIndexes(msg.sender);\r\n\r\n        oracles[msg.sender] = Oracle({isRegistered: true, indexes: indexes});\r\n    }\r\n\r\n    function getMyIndexes() external view returns (uint8[3] memory) {\r\n        require(\r\n            oracles[msg.sender].isRegistered,\r\n            \"Not registered as an oracle\"\r\n        );\r\n\r\n        return oracles[msg.sender].indexes;\r\n    }\r\n\r\n    // Called by oracle when a response is available to an outstanding request\r\n    // For the response to be accepted, there must be a pending request that is open\r\n    // and matches one of the three Indexes randomly assigned to the oracle at the\r\n    // time of registration (i.e. uninvited oracles are not welcome)\r\n    function submitOracleResponse(\r\n        uint8 index,\r\n        address airline,\r\n        string calldata flight,\r\n        uint256 timestamp,\r\n        uint8 statusCode\r\n    ) external {\r\n        require(\r\n            (oracles[msg.sender].indexes[0] == index) ||\r\n                (oracles[msg.sender].indexes[1] == index) ||\r\n                (oracles[msg.sender].indexes[2] == index),\r\n            \"Index does not match oracle request\"\r\n        );\r\n\r\n        bytes32 key = keccak256(\r\n            abi.encodePacked(index, airline, flight, timestamp)\r\n        );\r\n        require(\r\n            oracleResponses[key].isOpen,\r\n            \"Flight or timestamp do not match oracle request\"\r\n        );\r\n\r\n        oracleResponses[key].responses[statusCode].push(msg.sender);\r\n\r\n        // Information isn't considered verified until at least MIN_RESPONSES\r\n        // oracles respond with the *** same *** information\r\n        emit OracleReport(airline, flight, timestamp, statusCode);\r\n        if (\r\n            oracleResponses[key].responses[statusCode].length >= MIN_RESPONSES\r\n        ) {\r\n            emit FlightStatusInfo(airline, flight, timestamp, statusCode);\r\n            oracleResponses[key].isOpen = false;\r\n            // Handle flight status as appropriate\r\n            processFlightStatus(airline, flight, timestamp, statusCode);\r\n        }\r\n    }\r\n\r\n    // Returns array of three non-duplicating integers from 0-9\r\n    function generateIndexes(address account)\r\n        internal\r\n        returns (uint8[3] memory)\r\n    {\r\n        uint8[3] memory indexes;\r\n        indexes[0] = getRandomIndex(account);\r\n\r\n        indexes[1] = indexes[0];\r\n        while (indexes[1] == indexes[0]) {\r\n            indexes[1] = getRandomIndex(account);\r\n        }\r\n\r\n        indexes[2] = indexes[1];\r\n        while ((indexes[2] == indexes[0]) || (indexes[2] == indexes[1])) {\r\n            indexes[2] = getRandomIndex(account);\r\n        }\r\n\r\n        return indexes;\r\n    }\r\n\r\n    function abs(int256 x) internal pure returns (int256) {\r\n        return x < 0 ? -x : x;\r\n    }\r\n\r\n    // Returns array of three non-duplicating integers from 0-9\r\n    function getRandomIndex(address account) internal returns (uint8) {\r\n        uint8 maxValue = 10;\r\n\r\n        // Pseudo random number...the incrementing nonce adds variation\r\n        // uint8 random = uint8(\r\n        //     uint256(\r\n        //         keccak256(\r\n        //             abi.encodePacked(\r\n        //                 blockhash(abs(block.number - nonce++), account)\r\n        //             )\r\n        //         ) % maxValue\r\n        //     )\r\n        // );\r\n\r\n        uint8 random = uint8(\r\n            uint256(\r\n                keccak256(abi.encodePacked(block.timestamp, account, nonce++))\r\n            ) % maxValue\r\n        );\r\n\r\n        if (nonce > 1000) {\r\n            nonce = 0; // Can only fetch blockhashes for last 256 blocks so we adapt\r\n        }\r\n\r\n        return random;\r\n    }\r\n\r\n    // endregion\r\n}\r\n",
  "sourcePath": "C:\\Users\\skar\\code\\FlightInsure\\contracts\\FlightInsureApp.sol",
  "compiler": {
    "name": "solc",
    "version": "0.8.17+commit.8df45f5f.Emscripten.clang"
  },
  "schemaVersion": "3.4.11",
  "updatedAt": "2023-01-04T08:10:19.930Z",
  "networkType": "ethereum",
  "devdoc": {
    "kind": "dev",
    "methods": {
      "owner()": {
        "details": "Returns the address of the current owner."
      },
      "paused()": {
        "details": "Returns true if the contract is paused, and false otherwise."
      },
      "renounceOwnership()": {
        "details": "Leaves the contract without owner. It will not be possible to call `onlyOwner` functions anymore. Can only be called by the current owner. NOTE: Renouncing ownership will leave the contract without an owner, thereby removing any functionality that is only available to the owner."
      },
      "transferOwnership(address)": {
        "details": "Transfers ownership of the contract to a new account (`newOwner`). Can only be called by the current owner."
      }
    },
    "version": 1
  },
  "userdoc": {
    "kind": "user",
    "methods": {},
    "version": 1
  }
}